{
  "_format": "hh-sol-artifact-1",
  "contractName": "TweetToken",
  "sourceName": "contracts/TweetToken.sol",
  "abi": [
    {
      "inputs": [
        {
          "internalType": "string",
          "name": "_newBaseURI",
          "type": "string"
        }
      ],
      "stateMutability": "nonpayable",
      "type": "constructor"
    },
    {
      "anonymous": false,
      "inputs": [
        {
          "indexed": true,
          "internalType": "address",
          "name": "owner",
          "type": "address"
        },
        {
          "indexed": true,
          "internalType": "address",
          "name": "approved",
          "type": "address"
        },
        {
          "indexed": true,
          "internalType": "uint256",
          "name": "tokenId",
          "type": "uint256"
        }
      ],
      "name": "Approval",
      "type": "event"
    },
    {
      "anonymous": false,
      "inputs": [
        {
          "indexed": true,
          "internalType": "address",
          "name": "owner",
          "type": "address"
        },
        {
          "indexed": true,
          "internalType": "address",
          "name": "operator",
          "type": "address"
        },
        {
          "indexed": false,
          "internalType": "bool",
          "name": "approved",
          "type": "bool"
        }
      ],
      "name": "ApprovalForAll",
      "type": "event"
    },
    {
      "anonymous": false,
      "inputs": [
        {
          "indexed": true,
          "internalType": "bytes32",
          "name": "role",
          "type": "bytes32"
        },
        {
          "indexed": true,
          "internalType": "bytes32",
          "name": "previousAdminRole",
          "type": "bytes32"
        },
        {
          "indexed": true,
          "internalType": "bytes32",
          "name": "newAdminRole",
          "type": "bytes32"
        }
      ],
      "name": "RoleAdminChanged",
      "type": "event"
    },
    {
      "anonymous": false,
      "inputs": [
        {
          "indexed": true,
          "internalType": "bytes32",
          "name": "role",
          "type": "bytes32"
        },
        {
          "indexed": true,
          "internalType": "address",
          "name": "account",
          "type": "address"
        },
        {
          "indexed": true,
          "internalType": "address",
          "name": "sender",
          "type": "address"
        }
      ],
      "name": "RoleGranted",
      "type": "event"
    },
    {
      "anonymous": false,
      "inputs": [
        {
          "indexed": true,
          "internalType": "bytes32",
          "name": "role",
          "type": "bytes32"
        },
        {
          "indexed": true,
          "internalType": "address",
          "name": "account",
          "type": "address"
        },
        {
          "indexed": true,
          "internalType": "address",
          "name": "sender",
          "type": "address"
        }
      ],
      "name": "RoleRevoked",
      "type": "event"
    },
    {
      "anonymous": false,
      "inputs": [
        {
          "indexed": true,
          "internalType": "uint256",
          "name": "tweetId",
          "type": "uint256"
        },
        {
          "indexed": true,
          "internalType": "string",
          "name": "tokenURI",
          "type": "string"
        },
        {
          "indexed": true,
          "internalType": "address",
          "name": "minter",
          "type": "address"
        }
      ],
      "name": "TokenCreated",
      "type": "event"
    },
    {
      "anonymous": false,
      "inputs": [
        {
          "indexed": true,
          "internalType": "address",
          "name": "from",
          "type": "address"
        },
        {
          "indexed": true,
          "internalType": "address",
          "name": "to",
          "type": "address"
        },
        {
          "indexed": true,
          "internalType": "uint256",
          "name": "tokenId",
          "type": "uint256"
        }
      ],
      "name": "Transfer",
      "type": "event"
    },
    {
      "inputs": [],
      "name": "DEFAULT_ADMIN_ROLE",
      "outputs": [
        {
          "internalType": "bytes32",
          "name": "",
          "type": "bytes32"
        }
      ],
      "stateMutability": "view",
      "type": "function"
    },
    {
      "inputs": [],
      "name": "MINTER_ROLE",
      "outputs": [
        {
          "internalType": "bytes32",
          "name": "",
          "type": "bytes32"
        }
      ],
      "stateMutability": "view",
      "type": "function"
    },
    {
      "inputs": [],
      "name": "PAUSER_ROLE",
      "outputs": [
        {
          "internalType": "bytes32",
          "name": "",
          "type": "bytes32"
        }
      ],
      "stateMutability": "view",
      "type": "function"
    },
    {
      "inputs": [],
      "name": "URI_SETTER_ROLE",
      "outputs": [
        {
          "internalType": "bytes32",
          "name": "",
          "type": "bytes32"
        }
      ],
      "stateMutability": "view",
      "type": "function"
    },
    {
      "inputs": [
        {
          "internalType": "address",
          "name": "to",
          "type": "address"
        },
        {
          "internalType": "uint256",
          "name": "tokenId",
          "type": "uint256"
        }
      ],
      "name": "approve",
      "outputs": [],
      "stateMutability": "nonpayable",
      "type": "function"
    },
    {
      "inputs": [
        {
          "internalType": "address",
          "name": "owner",
          "type": "address"
        }
      ],
      "name": "balanceOf",
      "outputs": [
        {
          "internalType": "uint256",
          "name": "",
          "type": "uint256"
        }
      ],
      "stateMutability": "view",
      "type": "function"
    },
    {
      "inputs": [],
      "name": "baseURI",
      "outputs": [
        {
          "internalType": "string",
          "name": "",
          "type": "string"
        }
      ],
      "stateMutability": "view",
      "type": "function"
    },
    {
      "inputs": [],
      "name": "flipSaleState",
      "outputs": [
        {
          "internalType": "bool",
          "name": "",
          "type": "bool"
        }
      ],
      "stateMutability": "nonpayable",
      "type": "function"
    },
    {
      "inputs": [
        {
          "internalType": "uint256",
          "name": "tokenId",
          "type": "uint256"
        }
      ],
      "name": "getApproved",
      "outputs": [
        {
          "internalType": "address",
          "name": "",
          "type": "address"
        }
      ],
      "stateMutability": "view",
      "type": "function"
    },
    {
      "inputs": [
        {
          "internalType": "bytes32",
          "name": "role",
          "type": "bytes32"
        }
      ],
      "name": "getRoleAdmin",
      "outputs": [
        {
          "internalType": "bytes32",
          "name": "",
          "type": "bytes32"
        }
      ],
      "stateMutability": "view",
      "type": "function"
    },
    {
      "inputs": [],
      "name": "getTokenCount",
      "outputs": [
        {
          "internalType": "uint256",
          "name": "",
          "type": "uint256"
        }
      ],
      "stateMutability": "view",
      "type": "function"
    },
    {
      "inputs": [
        {
          "internalType": "bytes32",
          "name": "role",
          "type": "bytes32"
        },
        {
          "internalType": "address",
          "name": "account",
          "type": "address"
        }
      ],
      "name": "grantRole",
      "outputs": [],
      "stateMutability": "nonpayable",
      "type": "function"
    },
    {
      "inputs": [
        {
          "internalType": "bytes32",
          "name": "role",
          "type": "bytes32"
        },
        {
          "internalType": "address",
          "name": "account",
          "type": "address"
        }
      ],
      "name": "hasRole",
      "outputs": [
        {
          "internalType": "bool",
          "name": "",
          "type": "bool"
        }
      ],
      "stateMutability": "view",
      "type": "function"
    },
    {
      "inputs": [
        {
          "internalType": "address",
          "name": "owner",
          "type": "address"
        },
        {
          "internalType": "address",
          "name": "operator",
          "type": "address"
        }
      ],
      "name": "isApprovedForAll",
      "outputs": [
        {
          "internalType": "bool",
          "name": "",
          "type": "bool"
        }
      ],
      "stateMutability": "view",
      "type": "function"
    },
    {
      "inputs": [
        {
          "internalType": "address",
          "name": "_account",
          "type": "address"
        },
        {
          "internalType": "uint256",
          "name": "_tweetId",
          "type": "uint256"
        },
        {
          "internalType": "string",
          "name": "_tokenURI",
          "type": "string"
        }
      ],
      "name": "mintTweet",
      "outputs": [
        {
          "internalType": "uint256",
          "name": "",
          "type": "uint256"
        }
      ],
      "stateMutability": "nonpayable",
      "type": "function"
    },
    {
      "inputs": [],
      "name": "name",
      "outputs": [
        {
          "internalType": "string",
          "name": "",
          "type": "string"
        }
      ],
      "stateMutability": "view",
      "type": "function"
    },
    {
      "inputs": [
        {
          "internalType": "uint256",
          "name": "tokenId",
          "type": "uint256"
        }
      ],
      "name": "ownerOf",
      "outputs": [
        {
          "internalType": "address",
          "name": "",
          "type": "address"
        }
      ],
      "stateMutability": "view",
      "type": "function"
    },
    {
      "inputs": [
        {
          "internalType": "bytes32",
          "name": "role",
          "type": "bytes32"
        },
        {
          "internalType": "address",
          "name": "account",
          "type": "address"
        }
      ],
      "name": "renounceRole",
      "outputs": [],
      "stateMutability": "nonpayable",
      "type": "function"
    },
    {
      "inputs": [
        {
          "internalType": "bytes32",
          "name": "role",
          "type": "bytes32"
        },
        {
          "internalType": "address",
          "name": "account",
          "type": "address"
        }
      ],
      "name": "revokeRole",
      "outputs": [],
      "stateMutability": "nonpayable",
      "type": "function"
    },
    {
      "inputs": [
        {
          "internalType": "address",
          "name": "from",
          "type": "address"
        },
        {
          "internalType": "address",
          "name": "to",
          "type": "address"
        },
        {
          "internalType": "uint256",
          "name": "tokenId",
          "type": "uint256"
        }
      ],
      "name": "safeTransferFrom",
      "outputs": [],
      "stateMutability": "nonpayable",
      "type": "function"
    },
    {
      "inputs": [
        {
          "internalType": "address",
          "name": "from",
          "type": "address"
        },
        {
          "internalType": "address",
          "name": "to",
          "type": "address"
        },
        {
          "internalType": "uint256",
          "name": "tokenId",
          "type": "uint256"
        },
        {
          "internalType": "bytes",
          "name": "_data",
          "type": "bytes"
        }
      ],
      "name": "safeTransferFrom",
      "outputs": [],
      "stateMutability": "nonpayable",
      "type": "function"
    },
    {
      "inputs": [],
      "name": "saleIsActive",
      "outputs": [
        {
          "internalType": "bool",
          "name": "",
          "type": "bool"
        }
      ],
      "stateMutability": "view",
      "type": "function"
    },
    {
      "inputs": [
        {
          "internalType": "address",
          "name": "operator",
          "type": "address"
        },
        {
          "internalType": "bool",
          "name": "approved",
          "type": "bool"
        }
      ],
      "name": "setApprovalForAll",
      "outputs": [],
      "stateMutability": "nonpayable",
      "type": "function"
    },
    {
      "inputs": [
        {
          "internalType": "string",
          "name": "_newBaseURI",
          "type": "string"
        }
      ],
      "name": "setBaseURI",
      "outputs": [
        {
          "internalType": "string",
          "name": "",
          "type": "string"
        }
      ],
      "stateMutability": "nonpayable",
      "type": "function"
    },
    {
      "inputs": [
        {
          "internalType": "bytes4",
          "name": "interfaceId",
          "type": "bytes4"
        }
      ],
      "name": "supportsInterface",
      "outputs": [
        {
          "internalType": "bool",
          "name": "",
          "type": "bool"
        }
      ],
      "stateMutability": "view",
      "type": "function"
    },
    {
      "inputs": [],
      "name": "symbol",
      "outputs": [
        {
          "internalType": "string",
          "name": "",
          "type": "string"
        }
      ],
      "stateMutability": "view",
      "type": "function"
    },
    {
      "inputs": [
        {
          "internalType": "uint256",
          "name": "tokenId",
          "type": "uint256"
        }
      ],
      "name": "tokenURI",
      "outputs": [
        {
          "internalType": "string",
          "name": "",
          "type": "string"
        }
      ],
      "stateMutability": "view",
      "type": "function"
    },
    {
      "inputs": [
        {
          "internalType": "address",
          "name": "from",
          "type": "address"
        },
        {
          "internalType": "address",
          "name": "to",
          "type": "address"
        },
        {
          "internalType": "uint256",
          "name": "tokenId",
          "type": "uint256"
        }
      ],
      "name": "transferFrom",
      "outputs": [],
      "stateMutability": "nonpayable",
      "type": "function"
    }
  ],
  "bytecode": "0x60806040523480156200001157600080fd5b506040516200434738038062004347833981810160405281019062000037919062000450565b6040518060400160405280600d81526020017f7477656574746f6b656e2e696f000000000000000000000000000000000000008152506040518060400160405280600381526020017f54545400000000000000000000000000000000000000000000000000000000008152508160009080519060200190620000bb92919062000322565b508060019080519060200190620000d492919062000322565b505050620000ec6000801b33620001bd60201b60201c565b6200011e7f9f2df0fed2c77648de5860a4cc508cd0818c85b8b8a1ab4ceeef8d981c8956a633620001bd60201b60201c565b620001507f65d7a28e3265b37a6474929f336521b332c1681b933f6cb9f3376673440d862a33620001bd60201b60201c565b620001827f7804d923f43a17d325d77e781528e0793b2edd9890ab45fc64efd7b4b427744c33620001bd60201b60201c565b80600990805190602001906200019a92919062000322565b506000600860006101000a81548160ff0219169083151502179055505062000625565b620001cf8282620002af60201b60201c565b620002ab5760016007600084815260200190815260200160002060000160008373ffffffffffffffffffffffffffffffffffffffff1673ffffffffffffffffffffffffffffffffffffffff16815260200190815260200160002060006101000a81548160ff021916908315150217905550620002506200031a60201b60201c565b73ffffffffffffffffffffffffffffffffffffffff168173ffffffffffffffffffffffffffffffffffffffff16837f2f8788117e7eff1d82e926ec794901d17c78024a50270940304540a733656f0d60405160405180910390a45b5050565b60006007600084815260200190815260200160002060000160008373ffffffffffffffffffffffffffffffffffffffff1673ffffffffffffffffffffffffffffffffffffffff16815260200190815260200160002060009054906101000a900460ff16905092915050565b600033905090565b828054620003309062000536565b90600052602060002090601f016020900481019282620003545760008555620003a0565b82601f106200036f57805160ff1916838001178555620003a0565b82800160010185558215620003a0579182015b828111156200039f57825182559160200191906001019062000382565b5b509050620003af9190620003b3565b5090565b5b80821115620003ce576000816000905550600101620003b4565b5090565b6000620003e9620003e384620004ca565b620004a1565b90508281526020810184848401111562000408576200040762000605565b5b6200041584828562000500565b509392505050565b600082601f83011262000435576200043462000600565b5b815162000447848260208601620003d2565b91505092915050565b6000602082840312156200046957620004686200060f565b5b600082015167ffffffffffffffff8111156200048a57620004896200060a565b5b62000498848285016200041d565b91505092915050565b6000620004ad620004c0565b9050620004bb82826200056c565b919050565b6000604051905090565b600067ffffffffffffffff821115620004e857620004e7620005d1565b5b620004f38262000614565b9050602081019050919050565b60005b838110156200052057808201518184015260208101905062000503565b8381111562000530576000848401525b50505050565b600060028204905060018216806200054f57607f821691505b60208210811415620005665762000565620005a2565b5b50919050565b620005778262000614565b810181811067ffffffffffffffff82111715620005995762000598620005d1565b5b80604052505050565b7f4e487b7100000000000000000000000000000000000000000000000000000000600052602260045260246000fd5b7f4e487b7100000000000000000000000000000000000000000000000000000000600052604160045260246000fd5b600080fd5b600080fd5b600080fd5b600080fd5b6000601f19601f8301169050919050565b613d1280620006356000396000f3fe608060405234801561001057600080fd5b50600436106101c45760003560e01c806370a08231116100f9578063b88d4fde11610097578063d547741f11610071578063d547741f1461052d578063e63ab1e914610549578063e985e9c514610567578063eb8d244414610597576101c4565b8063b88d4fde146104c3578063c87b56dd146104df578063d53913931461050f576101c4565b806391d14854116100d357806391d148541461043b57806395d89b411461046b578063a217fddf14610489578063a22cb465146104a7576101c4565b806370a08231146103cf57806378a89567146103ff5780637f3457101461041d576101c4565b806334918dfd1161016657806355f804b31161014057806355f804b3146103215780636352211e14610351578063668aa818146103815780636c0360eb146103b1576101c4565b806334918dfd146102cb57806336568abe146102e957806342842e0e14610305576101c4565b8063095ea7b3116101a2578063095ea7b31461024757806323b872dd14610263578063248a9ca31461027f5780632f2ff15d146102af576101c4565b806301ffc9a7146101c957806306fdde03146101f9578063081812fc14610217575b600080fd5b6101e360048036038101906101de9190612a05565b6105b5565b6040516101f09190612f6f565b60405180910390f35b6102016105c7565b60405161020e9190612fa5565b60405180910390f35b610231600480360381019061022c9190612aa8565b610659565b60405161023e9190612f08565b60405180910390f35b610261600480360381019061025c91906128e9565b6106de565b005b61027d600480360381019061027891906127d3565b6107f6565b005b61029960048036038101906102949190612998565b610856565b6040516102a69190612f8a565b60405180910390f35b6102c960048036038101906102c491906129c5565b610876565b005b6102d361089f565b6040516102e09190612f6f565b60405180910390f35b61030360048036038101906102fe91906129c5565b610902565b005b61031f600480360381019061031a91906127d3565b610985565b005b61033b60048036038101906103369190612a5f565b6109a5565b6040516103489190612fa5565b60405180910390f35b61036b60048036038101906103669190612aa8565b610a80565b6040516103789190612f08565b60405180910390f35b61039b60048036038101906103969190612929565b610b32565b6040516103a89190613227565b60405180910390f35b6103b9610c38565b6040516103c69190612fa5565b60405180910390f35b6103e960048036038101906103e49190612766565b610cc6565b6040516103f69190613227565b60405180910390f35b610407610d7e565b6040516104149190613227565b60405180910390f35b610425610d8f565b6040516104329190612f8a565b60405180910390f35b610455600480360381019061045091906129c5565b610db3565b6040516104629190612f6f565b60405180910390f35b610473610e1e565b6040516104809190612fa5565b60405180910390f35b610491610eb0565b60405161049e9190612f8a565b60405180910390f35b6104c160048036038101906104bc91906128a9565b610eb7565b005b6104dd60048036038101906104d89190612826565b610ecd565b005b6104f960048036038101906104f49190612aa8565b610f2f565b6040516105069190612fa5565b60405180910390f35b610517610f41565b6040516105249190612f8a565b60405180910390f35b610547600480360381019061054291906129c5565b610f65565b005b610551610f8e565b60405161055e9190612f8a565b60405180910390f35b610581600480360381019061057c9190612793565b610fb2565b60405161058e9190612f6f565b60405180910390f35b61059f611046565b6040516105ac9190612f6f565b60405180910390f35b60006105c082611059565b9050919050565b6060600080546105d69061350b565b80601f01602080910402602001604051908101604052809291908181526020018280546106029061350b565b801561064f5780601f106106245761010080835404028352916020019161064f565b820191906000526020600020905b81548152906001019060200180831161063257829003601f168201915b5050505050905090565b6000610664826110d3565b6106a3576040517f08c379a000000000000000000000000000000000000000000000000000000000815260040161069a90613147565b60405180910390fd5b6004600083815260200190815260200160002060009054906101000a900473ffffffffffffffffffffffffffffffffffffffff169050919050565b60006106e982610a80565b90508073ffffffffffffffffffffffffffffffffffffffff168373ffffffffffffffffffffffffffffffffffffffff16141561075a576040517f08c379a0000000000000000000000000000000000000000000000000000000008152600401610751906131a7565b60405180910390fd5b8073ffffffffffffffffffffffffffffffffffffffff1661077961113f565b73ffffffffffffffffffffffffffffffffffffffff1614806107a857506107a7816107a261113f565b610fb2565b5b6107e7576040517f08c379a00000000000000000000000000000000000000000000000000000000081526004016107de90613087565b60405180910390fd5b6107f18383611147565b505050565b61080761080161113f565b82611200565b610846576040517f08c379a000000000000000000000000000000000000000000000000000000000815260040161083d906131c7565b60405180910390fd5b6108518383836112de565b505050565b600060076000838152602001908152602001600020600101549050919050565b61087f82610856565b6108908161088b61113f565b61153a565b61089a83836115d7565b505050565b60007f65d7a28e3265b37a6474929f336521b332c1681b933f6cb9f3376673440d862a6108d3816108ce61113f565b61153a565b600860009054906101000a900460ff1615600860006101000a81548160ff021916908315150217905591505090565b61090a61113f565b73ffffffffffffffffffffffffffffffffffffffff168173ffffffffffffffffffffffffffffffffffffffff1614610977576040517f08c379a000000000000000000000000000000000000000000000000000000000815260040161096e90613207565b60405180910390fd5b61098182826116b8565b5050565b6109a083838360405180602001604052806000815250610ecd565b505050565b60607f7804d923f43a17d325d77e781528e0793b2edd9890ab45fc64efd7b4b427744c6109d9816109d461113f565b61153a565b82600990805190602001906109ef929190612565565b80546109fa9061350b565b80601f0160208091040260200160405190810160405280929190818152602001828054610a269061350b565b8015610a735780601f10610a4857610100808354040283529160200191610a73565b820191906000526020600020905b815481529060010190602001808311610a5657829003601f168201915b5050505050915050919050565b6000806002600084815260200190815260200160002060009054906101000a900473ffffffffffffffffffffffffffffffffffffffff169050600073ffffffffffffffffffffffffffffffffffffffff168173ffffffffffffffffffffffffffffffffffffffff161415610b29576040517f08c379a0000000000000000000000000000000000000000000000000000000008152600401610b20906130c7565b60405180910390fd5b80915050919050565b60007f9f2df0fed2c77648de5860a4cc508cd0818c85b8b8a1ab4ceeef8d981c8956a6610b6681610b6161113f565b61153a565b600860009054906101000a900460ff16610bb5576040517f08c379a0000000000000000000000000000000000000000000000000000000008152600401610bac906131e7565b60405180910390fd5b610bbf600a61179a565b610bc985856117b0565b610bd384846117ce565b8473ffffffffffffffffffffffffffffffffffffffff1683604051610bf89190612e93565b6040518091039020857f2169fca571ac413a2cd58ee7ce0947380b8aa3a5fc6dab5b6fcc5a5c14a2d3c060405160405180910390a4839150509392505050565b60098054610c459061350b565b80601f0160208091040260200160405190810160405280929190818152602001828054610c719061350b565b8015610cbe5780601f10610c9357610100808354040283529160200191610cbe565b820191906000526020600020905b815481529060010190602001808311610ca157829003601f168201915b505050505081565b60008073ffffffffffffffffffffffffffffffffffffffff168273ffffffffffffffffffffffffffffffffffffffff161415610d37576040517f08c379a0000000000000000000000000000000000000000000000000000000008152600401610d2e906130a7565b60405180910390fd5b600360008373ffffffffffffffffffffffffffffffffffffffff1673ffffffffffffffffffffffffffffffffffffffff168152602001908152602001600020549050919050565b6000610d8a600a611842565b905090565b7f7804d923f43a17d325d77e781528e0793b2edd9890ab45fc64efd7b4b427744c81565b60006007600084815260200190815260200160002060000160008373ffffffffffffffffffffffffffffffffffffffff1673ffffffffffffffffffffffffffffffffffffffff16815260200190815260200160002060009054906101000a900460ff16905092915050565b606060018054610e2d9061350b565b80601f0160208091040260200160405190810160405280929190818152602001828054610e599061350b565b8015610ea65780601f10610e7b57610100808354040283529160200191610ea6565b820191906000526020600020905b815481529060010190602001808311610e8957829003601f168201915b5050505050905090565b6000801b81565b610ec9610ec261113f565b8383611850565b5050565b610ede610ed861113f565b83611200565b610f1d576040517f08c379a0000000000000000000000000000000000000000000000000000000008152600401610f14906131c7565b60405180910390fd5b610f29848484846119bd565b50505050565b6060610f3a82611a19565b9050919050565b7f9f2df0fed2c77648de5860a4cc508cd0818c85b8b8a1ab4ceeef8d981c8956a681565b610f6e82610856565b610f7f81610f7a61113f565b61153a565b610f8983836116b8565b505050565b7f65d7a28e3265b37a6474929f336521b332c1681b933f6cb9f3376673440d862a81565b6000600560008473ffffffffffffffffffffffffffffffffffffffff1673ffffffffffffffffffffffffffffffffffffffff16815260200190815260200160002060008373ffffffffffffffffffffffffffffffffffffffff1673ffffffffffffffffffffffffffffffffffffffff16815260200190815260200160002060009054906101000a900460ff16905092915050565b600860009054906101000a900460ff1681565b60007f7965db0b000000000000000000000000000000000000000000000000000000007bffffffffffffffffffffffffffffffffffffffffffffffffffffffff1916827bffffffffffffffffffffffffffffffffffffffffffffffffffffffff191614806110cc57506110cb82611b6b565b5b9050919050565b60008073ffffffffffffffffffffffffffffffffffffffff166002600084815260200190815260200160002060009054906101000a900473ffffffffffffffffffffffffffffffffffffffff1673ffffffffffffffffffffffffffffffffffffffff1614159050919050565b600033905090565b816004600083815260200190815260200160002060006101000a81548173ffffffffffffffffffffffffffffffffffffffff021916908373ffffffffffffffffffffffffffffffffffffffff160217905550808273ffffffffffffffffffffffffffffffffffffffff166111ba83610a80565b73ffffffffffffffffffffffffffffffffffffffff167f8c5be1e5ebec7d5bd14f71427d1e84f3dd0314c0f7b2291e5b200ac8c7c3b92560405160405180910390a45050565b600061120b826110d3565b61124a576040517f08c379a000000000000000000000000000000000000000000000000000000000815260040161124190613067565b60405180910390fd5b600061125583610a80565b90508073ffffffffffffffffffffffffffffffffffffffff168473ffffffffffffffffffffffffffffffffffffffff1614806112c457508373ffffffffffffffffffffffffffffffffffffffff166112ac84610659565b73ffffffffffffffffffffffffffffffffffffffff16145b806112d557506112d48185610fb2565b5b91505092915050565b8273ffffffffffffffffffffffffffffffffffffffff166112fe82610a80565b73ffffffffffffffffffffffffffffffffffffffff1614611354576040517f08c379a000000000000000000000000000000000000000000000000000000000815260040161134b90613167565b60405180910390fd5b600073ffffffffffffffffffffffffffffffffffffffff168273ffffffffffffffffffffffffffffffffffffffff1614156113c4576040517f08c379a00000000000000000000000000000000000000000000000000000000081526004016113bb90613027565b60405180910390fd5b6113cf838383611c4d565b6113da600082611147565b6001600360008573ffffffffffffffffffffffffffffffffffffffff1673ffffffffffffffffffffffffffffffffffffffff168152602001908152602001600020600082825461142a91906133ed565b925050819055506001600360008473ffffffffffffffffffffffffffffffffffffffff1673ffffffffffffffffffffffffffffffffffffffff1681526020019081526020016000206000828254611481919061330c565b92505081905550816002600083815260200190815260200160002060006101000a81548173ffffffffffffffffffffffffffffffffffffffff021916908373ffffffffffffffffffffffffffffffffffffffff160217905550808273ffffffffffffffffffffffffffffffffffffffff168473ffffffffffffffffffffffffffffffffffffffff167fddf252ad1be2c89b69c2b068fc378daa952ba7f163c4a11628f55a4df523b3ef60405160405180910390a4505050565b6115448282610db3565b6115d3576115698173ffffffffffffffffffffffffffffffffffffffff166014611c52565b6115778360001c6020611c52565b604051602001611588929190612ece565b6040516020818303038152906040526040517f08c379a00000000000000000000000000000000000000000000000000000000081526004016115ca9190612fa5565b60405180910390fd5b5050565b6115e18282610db3565b6116b45760016007600084815260200190815260200160002060000160008373ffffffffffffffffffffffffffffffffffffffff1673ffffffffffffffffffffffffffffffffffffffff16815260200190815260200160002060006101000a81548160ff02191690831515021790555061165961113f565b73ffffffffffffffffffffffffffffffffffffffff168173ffffffffffffffffffffffffffffffffffffffff16837f2f8788117e7eff1d82e926ec794901d17c78024a50270940304540a733656f0d60405160405180910390a45b5050565b6116c28282610db3565b156117965760006007600084815260200190815260200160002060000160008373ffffffffffffffffffffffffffffffffffffffff1673ffffffffffffffffffffffffffffffffffffffff16815260200190815260200160002060006101000a81548160ff02191690831515021790555061173b61113f565b73ffffffffffffffffffffffffffffffffffffffff168173ffffffffffffffffffffffffffffffffffffffff16837ff6391f5c32d9c69d2a47ea670b442974b53935d1edc7fd64eb21e047a839171b60405160405180910390a45b5050565b6001816000016000828254019250508190555050565b6117ca828260405180602001604052806000815250611e8e565b5050565b6117d7826110d3565b611816576040517f08c379a000000000000000000000000000000000000000000000000000000000815260040161180d906130e7565b60405180910390fd5b8060066000848152602001908152602001600020908051906020019061183d929190612565565b505050565b600081600001549050919050565b8173ffffffffffffffffffffffffffffffffffffffff168373ffffffffffffffffffffffffffffffffffffffff1614156118bf576040517f08c379a00000000000000000000000000000000000000000000000000000000081526004016118b690613047565b60405180910390fd5b80600560008573ffffffffffffffffffffffffffffffffffffffff1673ffffffffffffffffffffffffffffffffffffffff16815260200190815260200160002060008473ffffffffffffffffffffffffffffffffffffffff1673ffffffffffffffffffffffffffffffffffffffff16815260200190815260200160002060006101000a81548160ff0219169083151502179055508173ffffffffffffffffffffffffffffffffffffffff168373ffffffffffffffffffffffffffffffffffffffff167f17307eab39ab6107e8899845ad3d59bd9653f200f220920489ca2b5937696c31836040516119b09190612f6f565b60405180910390a3505050565b6119c88484846112de565b6119d484848484611ee9565b611a13576040517f08c379a0000000000000000000000000000000000000000000000000000000008152600401611a0a90612fe7565b60405180910390fd5b50505050565b6060611a24826110d3565b611a63576040517f08c379a0000000000000000000000000000000000000000000000000000000008152600401611a5a90613127565b60405180910390fd5b6000600660008481526020019081526020016000208054611a839061350b565b80601f0160208091040260200160405190810160405280929190818152602001828054611aaf9061350b565b8015611afc5780601f10611ad157610100808354040283529160200191611afc565b820191906000526020600020905b815481529060010190602001808311611adf57829003601f168201915b505050505090506000611b0d612080565b9050600081511415611b23578192505050611b66565b600082511115611b58578082604051602001611b40929190612eaa565b60405160208183030381529060405292505050611b66565b611b6184612112565b925050505b919050565b60007f80ac58cd000000000000000000000000000000000000000000000000000000007bffffffffffffffffffffffffffffffffffffffffffffffffffffffff1916827bffffffffffffffffffffffffffffffffffffffffffffffffffffffff19161480611c3657507f5b5e139f000000000000000000000000000000000000000000000000000000007bffffffffffffffffffffffffffffffffffffffffffffffffffffffff1916827bffffffffffffffffffffffffffffffffffffffffffffffffffffffff1916145b80611c465750611c45826121b9565b5b9050919050565b505050565b606060006002836002611c659190613393565b611c6f919061330c565b67ffffffffffffffff811115611c8857611c876136a4565b5b6040519080825280601f01601f191660200182016040528015611cba5781602001600182028036833780820191505090505b5090507f300000000000000000000000000000000000000000000000000000000000000081600081518110611cf257611cf1613675565b5b60200101907effffffffffffffffffffffffffffffffffffffffffffffffffffffffffffff1916908160001a9053507f780000000000000000000000000000000000000000000000000000000000000081600181518110611d5657611d55613675565b5b60200101907effffffffffffffffffffffffffffffffffffffffffffffffffffffffffffff1916908160001a90535060006001846002611d969190613393565b611da0919061330c565b90505b6001811115611e40577f3031323334353637383961626364656600000000000000000000000000000000600f861660108110611de257611de1613675565b5b1a60f81b828281518110611df957611df8613675565b5b60200101907effffffffffffffffffffffffffffffffffffffffffffffffffffffffffffff1916908160001a905350600485901c945080611e39906134e1565b9050611da3565b5060008414611e84576040517f08c379a0000000000000000000000000000000000000000000000000000000008152600401611e7b90612fc7565b60405180910390fd5b8091505092915050565b611e988383612223565b611ea56000848484611ee9565b611ee4576040517f08c379a0000000000000000000000000000000000000000000000000000000008152600401611edb90612fe7565b60405180910390fd5b505050565b6000611f0a8473ffffffffffffffffffffffffffffffffffffffff166123f1565b15612073578373ffffffffffffffffffffffffffffffffffffffff1663150b7a02611f3361113f565b8786866040518563ffffffff1660e01b8152600401611f559493929190612f23565b602060405180830381600087803b158015611f6f57600080fd5b505af1925050508015611fa057506040513d601f19601f82011682018060405250810190611f9d9190612a32565b60015b612023573d8060008114611fd0576040519150601f19603f3d011682016040523d82523d6000602084013e611fd5565b606091505b5060008151141561201b576040517f08c379a000000000000000000000000000000000000000000000000000000000815260040161201290612fe7565b60405180910390fd5b805181602001fd5b63150b7a0260e01b7bffffffffffffffffffffffffffffffffffffffffffffffffffffffff1916817bffffffffffffffffffffffffffffffffffffffffffffffffffffffff191614915050612078565b600190505b949350505050565b60606009805461208f9061350b565b80601f01602080910402602001604051908101604052809291908181526020018280546120bb9061350b565b80156121085780601f106120dd57610100808354040283529160200191612108565b820191906000526020600020905b8154815290600101906020018083116120eb57829003601f168201915b5050505050905090565b606061211d826110d3565b61215c576040517f08c379a000000000000000000000000000000000000000000000000000000000815260040161215390613187565b60405180910390fd5b6000612166612080565b9050600081511161218657604051806020016040528060008152506121b1565b8061219084612404565b6040516020016121a1929190612eaa565b6040516020818303038152906040525b915050919050565b60007f01ffc9a7000000000000000000000000000000000000000000000000000000007bffffffffffffffffffffffffffffffffffffffffffffffffffffffff1916827bffffffffffffffffffffffffffffffffffffffffffffffffffffffff1916149050919050565b600073ffffffffffffffffffffffffffffffffffffffff168273ffffffffffffffffffffffffffffffffffffffff161415612293576040517f08c379a000000000000000000000000000000000000000000000000000000000815260040161228a90613107565b60405180910390fd5b61229c816110d3565b156122dc576040517f08c379a00000000000000000000000000000000000000000000000000000000081526004016122d390613007565b60405180910390fd5b6122e860008383611c4d565b6001600360008473ffffffffffffffffffffffffffffffffffffffff1673ffffffffffffffffffffffffffffffffffffffff1681526020019081526020016000206000828254612338919061330c565b92505081905550816002600083815260200190815260200160002060006101000a81548173ffffffffffffffffffffffffffffffffffffffff021916908373ffffffffffffffffffffffffffffffffffffffff160217905550808273ffffffffffffffffffffffffffffffffffffffff16600073ffffffffffffffffffffffffffffffffffffffff167fddf252ad1be2c89b69c2b068fc378daa952ba7f163c4a11628f55a4df523b3ef60405160405180910390a45050565b600080823b905060008111915050919050565b6060600082141561244c576040518060400160405280600181526020017f30000000000000000000000000000000000000000000000000000000000000008152509050612560565b600082905060005b6000821461247e5780806124679061356e565b915050600a826124779190613362565b9150612454565b60008167ffffffffffffffff81111561249a576124996136a4565b5b6040519080825280601f01601f1916602001820160405280156124cc5781602001600182028036833780820191505090505b5090505b60008514612559576001826124e591906133ed565b9150600a856124f491906135b7565b6030612500919061330c565b60f81b81838151811061251657612515613675565b5b60200101907effffffffffffffffffffffffffffffffffffffffffffffffffffffffffffff1916908160001a905350600a856125529190613362565b94506124d0565b8093505050505b919050565b8280546125719061350b565b90600052602060002090601f01602090048101928261259357600085556125da565b82601f106125ac57805160ff19168380011785556125da565b828001600101855582156125da579182015b828111156125d95782518255916020019190600101906125be565b5b5090506125e791906125eb565b5090565b5b808211156126045760008160009055506001016125ec565b5090565b600061261b61261684613267565b613242565b905082815260208101848484011115612637576126366136d8565b5b61264284828561349f565b509392505050565b600061265d61265884613298565b613242565b905082815260208101848484011115612679576126786136d8565b5b61268484828561349f565b509392505050565b60008135905061269b81613c69565b92915050565b6000813590506126b081613c80565b92915050565b6000813590506126c581613c97565b92915050565b6000813590506126da81613cae565b92915050565b6000815190506126ef81613cae565b92915050565b600082601f83011261270a576127096136d3565b5b813561271a848260208601612608565b91505092915050565b600082601f830112612738576127376136d3565b5b813561274884826020860161264a565b91505092915050565b60008135905061276081613cc5565b92915050565b60006020828403121561277c5761277b6136e2565b5b600061278a8482850161268c565b91505092915050565b600080604083850312156127aa576127a96136e2565b5b60006127b88582860161268c565b92505060206127c98582860161268c565b9150509250929050565b6000806000606084860312156127ec576127eb6136e2565b5b60006127fa8682870161268c565b935050602061280b8682870161268c565b925050604061281c86828701612751565b9150509250925092565b600080600080608085870312156128405761283f6136e2565b5b600061284e8782880161268c565b945050602061285f8782880161268c565b935050604061287087828801612751565b925050606085013567ffffffffffffffff811115612891576128906136dd565b5b61289d878288016126f5565b91505092959194509250565b600080604083850312156128c0576128bf6136e2565b5b60006128ce8582860161268c565b92505060206128df858286016126a1565b9150509250929050565b60008060408385031215612900576128ff6136e2565b5b600061290e8582860161268c565b925050602061291f85828601612751565b9150509250929050565b600080600060608486031215612942576129416136e2565b5b60006129508682870161268c565b935050602061296186828701612751565b925050604084013567ffffffffffffffff811115612982576129816136dd565b5b61298e86828701612723565b9150509250925092565b6000602082840312156129ae576129ad6136e2565b5b60006129bc848285016126b6565b91505092915050565b600080604083850312156129dc576129db6136e2565b5b60006129ea858286016126b6565b92505060206129fb8582860161268c565b9150509250929050565b600060208284031215612a1b57612a1a6136e2565b5b6000612a29848285016126cb565b91505092915050565b600060208284031215612a4857612a476136e2565b5b6000612a56848285016126e0565b91505092915050565b600060208284031215612a7557612a746136e2565b5b600082013567ffffffffffffffff811115612a9357612a926136dd565b5b612a9f84828501612723565b91505092915050565b600060208284031215612abe57612abd6136e2565b5b6000612acc84828501612751565b91505092915050565b612ade81613421565b82525050565b612aed81613433565b82525050565b612afc8161343f565b82525050565b6000612b0d826132c9565b612b1781856132df565b9350612b278185602086016134ae565b612b30816136e7565b840191505092915050565b6000612b46826132d4565b612b5081856132f0565b9350612b608185602086016134ae565b612b69816136e7565b840191505092915050565b6000612b7f826132d4565b612b898185613301565b9350612b998185602086016134ae565b80840191505092915050565b6000612bb26020836132f0565b9150612bbd826136f8565b602082019050919050565b6000612bd56032836132f0565b9150612be082613721565b604082019050919050565b6000612bf8601c836132f0565b9150612c0382613770565b602082019050919050565b6000612c1b6024836132f0565b9150612c2682613799565b604082019050919050565b6000612c3e6019836132f0565b9150612c49826137e8565b602082019050919050565b6000612c61602c836132f0565b9150612c6c82613811565b604082019050919050565b6000612c846038836132f0565b9150612c8f82613860565b604082019050919050565b6000612ca7602a836132f0565b9150612cb2826138af565b604082019050919050565b6000612cca6029836132f0565b9150612cd5826138fe565b604082019050919050565b6000612ced602e836132f0565b9150612cf88261394d565b604082019050919050565b6000612d106020836132f0565b9150612d1b8261399c565b602082019050919050565b6000612d336031836132f0565b9150612d3e826139c5565b604082019050919050565b6000612d56602c836132f0565b9150612d6182613a14565b604082019050919050565b6000612d796029836132f0565b9150612d8482613a63565b604082019050919050565b6000612d9c602f836132f0565b9150612da782613ab2565b604082019050919050565b6000612dbf6021836132f0565b9150612dca82613b01565b604082019050919050565b6000612de26031836132f0565b9150612ded82613b50565b604082019050919050565b6000612e056011836132f0565b9150612e1082613b9f565b602082019050919050565b6000612e28601783613301565b9150612e3382613bc8565b601782019050919050565b6000612e4b601183613301565b9150612e5682613bf1565b601182019050919050565b6000612e6e602f836132f0565b9150612e7982613c1a565b604082019050919050565b612e8d81613495565b82525050565b6000612e9f8284612b74565b915081905092915050565b6000612eb68285612b74565b9150612ec28284612b74565b91508190509392505050565b6000612ed982612e1b565b9150612ee58285612b74565b9150612ef082612e3e565b9150612efc8284612b74565b91508190509392505050565b6000602082019050612f1d6000830184612ad5565b92915050565b6000608082019050612f386000830187612ad5565b612f456020830186612ad5565b612f526040830185612e84565b8181036060830152612f648184612b02565b905095945050505050565b6000602082019050612f846000830184612ae4565b92915050565b6000602082019050612f9f6000830184612af3565b92915050565b60006020820190508181036000830152612fbf8184612b3b565b905092915050565b60006020820190508181036000830152612fe081612ba5565b9050919050565b6000602082019050818103600083015261300081612bc8565b9050919050565b6000602082019050818103600083015261302081612beb565b9050919050565b6000602082019050818103600083015261304081612c0e565b9050919050565b6000602082019050818103600083015261306081612c31565b9050919050565b6000602082019050818103600083015261308081612c54565b9050919050565b600060208201905081810360008301526130a081612c77565b9050919050565b600060208201905081810360008301526130c081612c9a565b9050919050565b600060208201905081810360008301526130e081612cbd565b9050919050565b6000602082019050818103600083015261310081612ce0565b9050919050565b6000602082019050818103600083015261312081612d03565b9050919050565b6000602082019050818103600083015261314081612d26565b9050919050565b6000602082019050818103600083015261316081612d49565b9050919050565b6000602082019050818103600083015261318081612d6c565b9050919050565b600060208201905081810360008301526131a081612d8f565b9050919050565b600060208201905081810360008301526131c081612db2565b9050919050565b600060208201905081810360008301526131e081612dd5565b9050919050565b6000602082019050818103600083015261320081612df8565b9050919050565b6000602082019050818103600083015261322081612e61565b9050919050565b600060208201905061323c6000830184612e84565b92915050565b600061324c61325d565b9050613258828261353d565b919050565b6000604051905090565b600067ffffffffffffffff821115613282576132816136a4565b5b61328b826136e7565b9050602081019050919050565b600067ffffffffffffffff8211156132b3576132b26136a4565b5b6132bc826136e7565b9050602081019050919050565b600081519050919050565b600081519050919050565b600082825260208201905092915050565b600082825260208201905092915050565b600081905092915050565b600061331782613495565b915061332283613495565b9250827fffffffffffffffffffffffffffffffffffffffffffffffffffffffffffffffff03821115613357576133566135e8565b5b828201905092915050565b600061336d82613495565b915061337883613495565b92508261338857613387613617565b5b828204905092915050565b600061339e82613495565b91506133a983613495565b9250817fffffffffffffffffffffffffffffffffffffffffffffffffffffffffffffffff04831182151516156133e2576133e16135e8565b5b828202905092915050565b60006133f882613495565b915061340383613495565b925082821015613416576134156135e8565b5b828203905092915050565b600061342c82613475565b9050919050565b60008115159050919050565b6000819050919050565b60007fffffffff0000000000000000000000000000000000000000000000000000000082169050919050565b600073ffffffffffffffffffffffffffffffffffffffff82169050919050565b6000819050919050565b82818337600083830152505050565b60005b838110156134cc5780820151818401526020810190506134b1565b838111156134db576000848401525b50505050565b60006134ec82613495565b91506000821415613500576134ff6135e8565b5b600182039050919050565b6000600282049050600182168061352357607f821691505b6020821081141561353757613536613646565b5b50919050565b613546826136e7565b810181811067ffffffffffffffff82111715613565576135646136a4565b5b80604052505050565b600061357982613495565b91507fffffffffffffffffffffffffffffffffffffffffffffffffffffffffffffffff8214156135ac576135ab6135e8565b5b600182019050919050565b60006135c282613495565b91506135cd83613495565b9250826135dd576135dc613617565b5b828206905092915050565b7f4e487b7100000000000000000000000000000000000000000000000000000000600052601160045260246000fd5b7f4e487b7100000000000000000000000000000000000000000000000000000000600052601260045260246000fd5b7f4e487b7100000000000000000000000000000000000000000000000000000000600052602260045260246000fd5b7f4e487b7100000000000000000000000000000000000000000000000000000000600052603260045260246000fd5b7f4e487b7100000000000000000000000000000000000000000000000000000000600052604160045260246000fd5b600080fd5b600080fd5b600080fd5b600080fd5b6000601f19601f8301169050919050565b7f537472696e67733a20686578206c656e67746820696e73756666696369656e74600082015250565b7f4552433732313a207472616e7366657220746f206e6f6e20455243373231526560008201527f63656976657220696d706c656d656e7465720000000000000000000000000000602082015250565b7f4552433732313a20746f6b656e20616c7265616479206d696e74656400000000600082015250565b7f4552433732313a207472616e7366657220746f20746865207a65726f2061646460008201527f7265737300000000000000000000000000000000000000000000000000000000602082015250565b7f4552433732313a20617070726f766520746f2063616c6c657200000000000000600082015250565b7f4552433732313a206f70657261746f7220717565727920666f72206e6f6e657860008201527f697374656e7420746f6b656e0000000000000000000000000000000000000000602082015250565b7f4552433732313a20617070726f76652063616c6c6572206973206e6f74206f7760008201527f6e6572206e6f7220617070726f76656420666f7220616c6c0000000000000000602082015250565b7f4552433732313a2062616c616e636520717565727920666f7220746865207a6560008201527f726f206164647265737300000000000000000000000000000000000000000000602082015250565b7f4552433732313a206f776e657220717565727920666f72206e6f6e657869737460008201527f656e7420746f6b656e0000000000000000000000000000000000000000000000602082015250565b7f45524337323155524953746f726167653a2055524920736574206f66206e6f6e60008201527f6578697374656e7420746f6b656e000000000000000000000000000000000000602082015250565b7f4552433732313a206d696e7420746f20746865207a65726f2061646472657373600082015250565b7f45524337323155524953746f726167653a2055524920717565727920666f722060008201527f6e6f6e6578697374656e7420746f6b656e000000000000000000000000000000602082015250565b7f4552433732313a20617070726f76656420717565727920666f72206e6f6e657860008201527f697374656e7420746f6b656e0000000000000000000000000000000000000000602082015250565b7f4552433732313a207472616e73666572206f6620746f6b656e2074686174206960008201527f73206e6f74206f776e0000000000000000000000000000000000000000000000602082015250565b7f4552433732314d657461646174613a2055524920717565727920666f72206e6f60008201527f6e6578697374656e7420746f6b656e0000000000000000000000000000000000602082015250565b7f4552433732313a20617070726f76616c20746f2063757272656e74206f776e6560008201527f7200000000000000000000000000000000000000000000000000000000000000602082015250565b7f4552433732313a207472616e736665722063616c6c6572206973206e6f74206f60008201527f776e6572206e6f7220617070726f766564000000000000000000000000000000602082015250565b7f4d696e74696e6720697320706175736564000000000000000000000000000000600082015250565b7f416363657373436f6e74726f6c3a206163636f756e7420000000000000000000600082015250565b7f206973206d697373696e6720726f6c6520000000000000000000000000000000600082015250565b7f416363657373436f6e74726f6c3a2063616e206f6e6c792072656e6f756e636560008201527f20726f6c657320666f722073656c660000000000000000000000000000000000602082015250565b613c7281613421565b8114613c7d57600080fd5b50565b613c8981613433565b8114613c9457600080fd5b50565b613ca08161343f565b8114613cab57600080fd5b50565b613cb781613449565b8114613cc257600080fd5b50565b613cce81613495565b8114613cd957600080fd5b5056fea26469706673582212202f43738494fceb425b3ce7c3246d2d73469f26cfc88913b98bafeec3837078e564736f6c63430008060033",
  "linkReferences": {},
  "deployedLinkReferences": {}
}