{
  "_format": "hh-sol-artifact-1",
  "contractName": "TweetToken",
  "sourceName": "contracts/TweetToken.sol",
  "abi": [
    {
      "inputs": [
        {
          "internalType": "string",
          "name": "_newBaseURI",
          "type": "string"
        }
      ],
      "stateMutability": "nonpayable",
      "type": "constructor"
    },
    {
      "anonymous": false,
      "inputs": [
        {
          "indexed": true,
          "internalType": "address",
          "name": "owner",
          "type": "address"
        },
        {
          "indexed": true,
          "internalType": "address",
          "name": "approved",
          "type": "address"
        },
        {
          "indexed": true,
          "internalType": "uint256",
          "name": "tokenId",
          "type": "uint256"
        }
      ],
      "name": "Approval",
      "type": "event"
    },
    {
      "anonymous": false,
      "inputs": [
        {
          "indexed": true,
          "internalType": "address",
          "name": "owner",
          "type": "address"
        },
        {
          "indexed": true,
          "internalType": "address",
          "name": "operator",
          "type": "address"
        },
        {
          "indexed": false,
          "internalType": "bool",
          "name": "approved",
          "type": "bool"
        }
      ],
      "name": "ApprovalForAll",
      "type": "event"
    },
    {
      "anonymous": false,
      "inputs": [
        {
          "indexed": true,
          "internalType": "bytes32",
          "name": "role",
          "type": "bytes32"
        },
        {
          "indexed": true,
          "internalType": "bytes32",
          "name": "previousAdminRole",
          "type": "bytes32"
        },
        {
          "indexed": true,
          "internalType": "bytes32",
          "name": "newAdminRole",
          "type": "bytes32"
        }
      ],
      "name": "RoleAdminChanged",
      "type": "event"
    },
    {
      "anonymous": false,
      "inputs": [
        {
          "indexed": true,
          "internalType": "bytes32",
          "name": "role",
          "type": "bytes32"
        },
        {
          "indexed": true,
          "internalType": "address",
          "name": "account",
          "type": "address"
        },
        {
          "indexed": true,
          "internalType": "address",
          "name": "sender",
          "type": "address"
        }
      ],
      "name": "RoleGranted",
      "type": "event"
    },
    {
      "anonymous": false,
      "inputs": [
        {
          "indexed": true,
          "internalType": "bytes32",
          "name": "role",
          "type": "bytes32"
        },
        {
          "indexed": true,
          "internalType": "address",
          "name": "account",
          "type": "address"
        },
        {
          "indexed": true,
          "internalType": "address",
          "name": "sender",
          "type": "address"
        }
      ],
      "name": "RoleRevoked",
      "type": "event"
    },
    {
      "anonymous": false,
      "inputs": [
        {
          "indexed": true,
          "internalType": "uint256",
          "name": "tweetId",
          "type": "uint256"
        },
        {
          "indexed": false,
          "internalType": "string",
          "name": "tokenURI",
          "type": "string"
        },
        {
          "indexed": true,
          "internalType": "address",
          "name": "minter",
          "type": "address"
        }
      ],
      "name": "TokenCreated",
      "type": "event"
    },
    {
      "anonymous": false,
      "inputs": [
        {
          "indexed": true,
          "internalType": "address",
          "name": "from",
          "type": "address"
        },
        {
          "indexed": true,
          "internalType": "address",
          "name": "to",
          "type": "address"
        },
        {
          "indexed": true,
          "internalType": "uint256",
          "name": "tokenId",
          "type": "uint256"
        }
      ],
      "name": "Transfer",
      "type": "event"
    },
    {
      "inputs": [],
      "name": "DEFAULT_ADMIN_ROLE",
      "outputs": [
        {
          "internalType": "bytes32",
          "name": "",
          "type": "bytes32"
        }
      ],
      "stateMutability": "view",
      "type": "function"
    },
    {
      "inputs": [],
      "name": "MINTER_ROLE",
      "outputs": [
        {
          "internalType": "bytes32",
          "name": "",
          "type": "bytes32"
        }
      ],
      "stateMutability": "view",
      "type": "function"
    },
    {
      "inputs": [],
      "name": "PAUSER_ROLE",
      "outputs": [
        {
          "internalType": "bytes32",
          "name": "",
          "type": "bytes32"
        }
      ],
      "stateMutability": "view",
      "type": "function"
    },
    {
      "inputs": [],
      "name": "URI_SETTER_ROLE",
      "outputs": [
        {
          "internalType": "bytes32",
          "name": "",
          "type": "bytes32"
        }
      ],
      "stateMutability": "view",
      "type": "function"
    },
    {
      "inputs": [
        {
          "internalType": "address",
          "name": "to",
          "type": "address"
        },
        {
          "internalType": "uint256",
          "name": "tokenId",
          "type": "uint256"
        }
      ],
      "name": "approve",
      "outputs": [],
      "stateMutability": "nonpayable",
      "type": "function"
    },
    {
      "inputs": [
        {
          "internalType": "address",
          "name": "owner",
          "type": "address"
        }
      ],
      "name": "balanceOf",
      "outputs": [
        {
          "internalType": "uint256",
          "name": "",
          "type": "uint256"
        }
      ],
      "stateMutability": "view",
      "type": "function"
    },
    {
      "inputs": [],
      "name": "baseURI",
      "outputs": [
        {
          "internalType": "string",
          "name": "",
          "type": "string"
        }
      ],
      "stateMutability": "view",
      "type": "function"
    },
    {
      "inputs": [],
      "name": "flipSaleState",
      "outputs": [
        {
          "internalType": "bool",
          "name": "",
          "type": "bool"
        }
      ],
      "stateMutability": "nonpayable",
      "type": "function"
    },
    {
      "inputs": [
        {
          "internalType": "uint256",
          "name": "tokenId",
          "type": "uint256"
        }
      ],
      "name": "getApproved",
      "outputs": [
        {
          "internalType": "address",
          "name": "",
          "type": "address"
        }
      ],
      "stateMutability": "view",
      "type": "function"
    },
    {
      "inputs": [
        {
          "internalType": "bytes32",
          "name": "role",
          "type": "bytes32"
        }
      ],
      "name": "getRoleAdmin",
      "outputs": [
        {
          "internalType": "bytes32",
          "name": "",
          "type": "bytes32"
        }
      ],
      "stateMutability": "view",
      "type": "function"
    },
    {
      "inputs": [],
      "name": "getTokenCount",
      "outputs": [
        {
          "internalType": "uint256",
          "name": "",
          "type": "uint256"
        }
      ],
      "stateMutability": "view",
      "type": "function"
    },
    {
      "inputs": [
        {
          "internalType": "bytes32",
          "name": "role",
          "type": "bytes32"
        },
        {
          "internalType": "address",
          "name": "account",
          "type": "address"
        }
      ],
      "name": "grantRole",
      "outputs": [],
      "stateMutability": "nonpayable",
      "type": "function"
    },
    {
      "inputs": [
        {
          "internalType": "bytes32",
          "name": "role",
          "type": "bytes32"
        },
        {
          "internalType": "address",
          "name": "account",
          "type": "address"
        }
      ],
      "name": "hasRole",
      "outputs": [
        {
          "internalType": "bool",
          "name": "",
          "type": "bool"
        }
      ],
      "stateMutability": "view",
      "type": "function"
    },
    {
      "inputs": [
        {
          "internalType": "address",
          "name": "owner",
          "type": "address"
        },
        {
          "internalType": "address",
          "name": "operator",
          "type": "address"
        }
      ],
      "name": "isApprovedForAll",
      "outputs": [
        {
          "internalType": "bool",
          "name": "",
          "type": "bool"
        }
      ],
      "stateMutability": "view",
      "type": "function"
    },
    {
      "inputs": [
        {
          "internalType": "address",
          "name": "_account",
          "type": "address"
        },
        {
          "internalType": "uint256",
          "name": "_tweetId",
          "type": "uint256"
        },
        {
          "internalType": "string",
          "name": "_tokenURI",
          "type": "string"
        }
      ],
      "name": "mintTweet",
      "outputs": [
        {
          "internalType": "uint256",
          "name": "",
          "type": "uint256"
        }
      ],
      "stateMutability": "nonpayable",
      "type": "function"
    },
    {
      "inputs": [],
      "name": "name",
      "outputs": [
        {
          "internalType": "string",
          "name": "",
          "type": "string"
        }
      ],
      "stateMutability": "view",
      "type": "function"
    },
    {
      "inputs": [
        {
          "internalType": "uint256",
          "name": "tokenId",
          "type": "uint256"
        }
      ],
      "name": "ownerOf",
      "outputs": [
        {
          "internalType": "address",
          "name": "",
          "type": "address"
        }
      ],
      "stateMutability": "view",
      "type": "function"
    },
    {
      "inputs": [
        {
          "internalType": "bytes32",
          "name": "role",
          "type": "bytes32"
        },
        {
          "internalType": "address",
          "name": "account",
          "type": "address"
        }
      ],
      "name": "renounceRole",
      "outputs": [],
      "stateMutability": "nonpayable",
      "type": "function"
    },
    {
      "inputs": [
        {
          "internalType": "bytes32",
          "name": "role",
          "type": "bytes32"
        },
        {
          "internalType": "address",
          "name": "account",
          "type": "address"
        }
      ],
      "name": "revokeRole",
      "outputs": [],
      "stateMutability": "nonpayable",
      "type": "function"
    },
    {
      "inputs": [
        {
          "internalType": "address",
          "name": "from",
          "type": "address"
        },
        {
          "internalType": "address",
          "name": "to",
          "type": "address"
        },
        {
          "internalType": "uint256",
          "name": "tokenId",
          "type": "uint256"
        }
      ],
      "name": "safeTransferFrom",
      "outputs": [],
      "stateMutability": "nonpayable",
      "type": "function"
    },
    {
      "inputs": [
        {
          "internalType": "address",
          "name": "from",
          "type": "address"
        },
        {
          "internalType": "address",
          "name": "to",
          "type": "address"
        },
        {
          "internalType": "uint256",
          "name": "tokenId",
          "type": "uint256"
        },
        {
          "internalType": "bytes",
          "name": "_data",
          "type": "bytes"
        }
      ],
      "name": "safeTransferFrom",
      "outputs": [],
      "stateMutability": "nonpayable",
      "type": "function"
    },
    {
      "inputs": [],
      "name": "saleIsActive",
      "outputs": [
        {
          "internalType": "bool",
          "name": "",
          "type": "bool"
        }
      ],
      "stateMutability": "view",
      "type": "function"
    },
    {
      "inputs": [
        {
          "internalType": "address",
          "name": "operator",
          "type": "address"
        },
        {
          "internalType": "bool",
          "name": "approved",
          "type": "bool"
        }
      ],
      "name": "setApprovalForAll",
      "outputs": [],
      "stateMutability": "nonpayable",
      "type": "function"
    },
    {
      "inputs": [
        {
          "internalType": "string",
          "name": "_newBaseURI",
          "type": "string"
        }
      ],
      "name": "setBaseURI",
      "outputs": [
        {
          "internalType": "string",
          "name": "",
          "type": "string"
        }
      ],
      "stateMutability": "nonpayable",
      "type": "function"
    },
    {
      "inputs": [
        {
          "internalType": "bytes4",
          "name": "interfaceId",
          "type": "bytes4"
        }
      ],
      "name": "supportsInterface",
      "outputs": [
        {
          "internalType": "bool",
          "name": "",
          "type": "bool"
        }
      ],
      "stateMutability": "view",
      "type": "function"
    },
    {
      "inputs": [],
      "name": "symbol",
      "outputs": [
        {
          "internalType": "string",
          "name": "",
          "type": "string"
        }
      ],
      "stateMutability": "view",
      "type": "function"
    },
    {
      "inputs": [
        {
          "internalType": "uint256",
          "name": "tokenId",
          "type": "uint256"
        }
      ],
      "name": "tokenURI",
      "outputs": [
        {
          "internalType": "string",
          "name": "",
          "type": "string"
        }
      ],
      "stateMutability": "view",
      "type": "function"
    },
    {
      "inputs": [
        {
          "internalType": "address",
          "name": "from",
          "type": "address"
        },
        {
          "internalType": "address",
          "name": "to",
          "type": "address"
        },
        {
          "internalType": "uint256",
          "name": "tokenId",
          "type": "uint256"
        }
      ],
      "name": "transferFrom",
      "outputs": [],
      "stateMutability": "nonpayable",
      "type": "function"
    }
  ],
  "bytecode": "0x60806040523480156200001157600080fd5b506040516200432538038062004325833981810160405281019062000037919062000450565b6040518060400160405280600d81526020017f7477656574746f6b656e2e696f000000000000000000000000000000000000008152506040518060400160405280600381526020017f54545400000000000000000000000000000000000000000000000000000000008152508160009080519060200190620000bb92919062000322565b508060019080519060200190620000d492919062000322565b505050620000ec6000801b33620001bd60201b60201c565b6200011e7f9f2df0fed2c77648de5860a4cc508cd0818c85b8b8a1ab4ceeef8d981c8956a633620001bd60201b60201c565b620001507f65d7a28e3265b37a6474929f336521b332c1681b933f6cb9f3376673440d862a33620001bd60201b60201c565b620001827f7804d923f43a17d325d77e781528e0793b2edd9890ab45fc64efd7b4b427744c33620001bd60201b60201c565b80600990805190602001906200019a92919062000322565b506000600860006101000a81548160ff0219169083151502179055505062000625565b620001cf8282620002af60201b60201c565b620002ab5760016007600084815260200190815260200160002060000160008373ffffffffffffffffffffffffffffffffffffffff1673ffffffffffffffffffffffffffffffffffffffff16815260200190815260200160002060006101000a81548160ff021916908315150217905550620002506200031a60201b60201c565b73ffffffffffffffffffffffffffffffffffffffff168173ffffffffffffffffffffffffffffffffffffffff16837f2f8788117e7eff1d82e926ec794901d17c78024a50270940304540a733656f0d60405160405180910390a45b5050565b60006007600084815260200190815260200160002060000160008373ffffffffffffffffffffffffffffffffffffffff1673ffffffffffffffffffffffffffffffffffffffff16815260200190815260200160002060009054906101000a900460ff16905092915050565b600033905090565b828054620003309062000536565b90600052602060002090601f016020900481019282620003545760008555620003a0565b82601f106200036f57805160ff1916838001178555620003a0565b82800160010185558215620003a0579182015b828111156200039f57825182559160200191906001019062000382565b5b509050620003af9190620003b3565b5090565b5b80821115620003ce576000816000905550600101620003b4565b5090565b6000620003e9620003e384620004ca565b620004a1565b90508281526020810184848401111562000408576200040762000605565b5b6200041584828562000500565b509392505050565b600082601f83011262000435576200043462000600565b5b815162000447848260208601620003d2565b91505092915050565b6000602082840312156200046957620004686200060f565b5b600082015167ffffffffffffffff8111156200048a57620004896200060a565b5b62000498848285016200041d565b91505092915050565b6000620004ad620004c0565b9050620004bb82826200056c565b919050565b6000604051905090565b600067ffffffffffffffff821115620004e857620004e7620005d1565b5b620004f38262000614565b9050602081019050919050565b60005b838110156200052057808201518184015260208101905062000503565b8381111562000530576000848401525b50505050565b600060028204905060018216806200054f57607f821691505b60208210811415620005665762000565620005a2565b5b50919050565b620005778262000614565b810181811067ffffffffffffffff82111715620005995762000598620005d1565b5b80604052505050565b7f4e487b7100000000000000000000000000000000000000000000000000000000600052602260045260246000fd5b7f4e487b7100000000000000000000000000000000000000000000000000000000600052604160045260246000fd5b600080fd5b600080fd5b600080fd5b600080fd5b6000601f19601f8301169050919050565b613cf080620006356000396000f3fe608060405234801561001057600080fd5b50600436106101c45760003560e01c806370a08231116100f9578063b88d4fde11610097578063d547741f11610071578063d547741f1461052d578063e63ab1e914610549578063e985e9c514610567578063eb8d244414610597576101c4565b8063b88d4fde146104c3578063c87b56dd146104df578063d53913931461050f576101c4565b806391d14854116100d357806391d148541461043b57806395d89b411461046b578063a217fddf14610489578063a22cb465146104a7576101c4565b806370a08231146103cf57806378a89567146103ff5780637f3457101461041d576101c4565b806334918dfd1161016657806355f804b31161014057806355f804b3146103215780636352211e14610351578063668aa818146103815780636c0360eb146103b1576101c4565b806334918dfd146102cb57806336568abe146102e957806342842e0e14610305576101c4565b8063095ea7b3116101a2578063095ea7b31461024757806323b872dd14610263578063248a9ca31461027f5780632f2ff15d146102af576101c4565b806301ffc9a7146101c957806306fdde03146101f9578063081812fc14610217575b600080fd5b6101e360048036038101906101de91906129fa565b6105b5565b6040516101f09190612f4d565b60405180910390f35b6102016105c7565b60405161020e9190612f83565b60405180910390f35b610231600480360381019061022c9190612a9d565b610659565b60405161023e9190612ee6565b60405180910390f35b610261600480360381019061025c91906128de565b6106de565b005b61027d600480360381019061027891906127c8565b6107f6565b005b6102996004803603810190610294919061298d565b610856565b6040516102a69190612f68565b60405180910390f35b6102c960048036038101906102c491906129ba565b610876565b005b6102d361089f565b6040516102e09190612f4d565b60405180910390f35b61030360048036038101906102fe91906129ba565b610902565b005b61031f600480360381019061031a91906127c8565b610985565b005b61033b60048036038101906103369190612a54565b6109a5565b6040516103489190612f83565b60405180910390f35b61036b60048036038101906103669190612a9d565b610a80565b6040516103789190612ee6565b60405180910390f35b61039b6004803603810190610396919061291e565b610b32565b6040516103a89190613205565b60405180910390f35b6103b9610c2d565b6040516103c69190612f83565b60405180910390f35b6103e960048036038101906103e4919061275b565b610cbb565b6040516103f69190613205565b60405180910390f35b610407610d73565b6040516104149190613205565b60405180910390f35b610425610d84565b6040516104329190612f68565b60405180910390f35b610455600480360381019061045091906129ba565b610da8565b6040516104629190612f4d565b60405180910390f35b610473610e13565b6040516104809190612f83565b60405180910390f35b610491610ea5565b60405161049e9190612f68565b60405180910390f35b6104c160048036038101906104bc919061289e565b610eac565b005b6104dd60048036038101906104d8919061281b565b610ec2565b005b6104f960048036038101906104f49190612a9d565b610f24565b6040516105069190612f83565b60405180910390f35b610517610f36565b6040516105249190612f68565b60405180910390f35b610547600480360381019061054291906129ba565b610f5a565b005b610551610f83565b60405161055e9190612f68565b60405180910390f35b610581600480360381019061057c9190612788565b610fa7565b60405161058e9190612f4d565b60405180910390f35b61059f61103b565b6040516105ac9190612f4d565b60405180910390f35b60006105c08261104e565b9050919050565b6060600080546105d6906134e9565b80601f0160208091040260200160405190810160405280929190818152602001828054610602906134e9565b801561064f5780601f106106245761010080835404028352916020019161064f565b820191906000526020600020905b81548152906001019060200180831161063257829003601f168201915b5050505050905090565b6000610664826110c8565b6106a3576040517f08c379a000000000000000000000000000000000000000000000000000000000815260040161069a90613125565b60405180910390fd5b6004600083815260200190815260200160002060009054906101000a900473ffffffffffffffffffffffffffffffffffffffff169050919050565b60006106e982610a80565b90508073ffffffffffffffffffffffffffffffffffffffff168373ffffffffffffffffffffffffffffffffffffffff16141561075a576040517f08c379a000000000000000000000000000000000000000000000000000000000815260040161075190613185565b60405180910390fd5b8073ffffffffffffffffffffffffffffffffffffffff16610779611134565b73ffffffffffffffffffffffffffffffffffffffff1614806107a857506107a7816107a2611134565b610fa7565b5b6107e7576040517f08c379a00000000000000000000000000000000000000000000000000000000081526004016107de90613065565b60405180910390fd5b6107f1838361113c565b505050565b610807610801611134565b826111f5565b610846576040517f08c379a000000000000000000000000000000000000000000000000000000000815260040161083d906131a5565b60405180910390fd5b6108518383836112d3565b505050565b600060076000838152602001908152602001600020600101549050919050565b61087f82610856565b6108908161088b611134565b61152f565b61089a83836115cc565b505050565b60007f65d7a28e3265b37a6474929f336521b332c1681b933f6cb9f3376673440d862a6108d3816108ce611134565b61152f565b600860009054906101000a900460ff1615600860006101000a81548160ff021916908315150217905591505090565b61090a611134565b73ffffffffffffffffffffffffffffffffffffffff168173ffffffffffffffffffffffffffffffffffffffff1614610977576040517f08c379a000000000000000000000000000000000000000000000000000000000815260040161096e906131e5565b60405180910390fd5b61098182826116ad565b5050565b6109a083838360405180602001604052806000815250610ec2565b505050565b60607f7804d923f43a17d325d77e781528e0793b2edd9890ab45fc64efd7b4b427744c6109d9816109d4611134565b61152f565b82600990805190602001906109ef92919061255a565b80546109fa906134e9565b80601f0160208091040260200160405190810160405280929190818152602001828054610a26906134e9565b8015610a735780601f10610a4857610100808354040283529160200191610a73565b820191906000526020600020905b815481529060010190602001808311610a5657829003601f168201915b5050505050915050919050565b6000806002600084815260200190815260200160002060009054906101000a900473ffffffffffffffffffffffffffffffffffffffff169050600073ffffffffffffffffffffffffffffffffffffffff168173ffffffffffffffffffffffffffffffffffffffff161415610b29576040517f08c379a0000000000000000000000000000000000000000000000000000000008152600401610b20906130a5565b60405180910390fd5b80915050919050565b60007f9f2df0fed2c77648de5860a4cc508cd0818c85b8b8a1ab4ceeef8d981c8956a6610b6681610b61611134565b61152f565b600860009054906101000a900460ff16610bb5576040517f08c379a0000000000000000000000000000000000000000000000000000000008152600401610bac906131c5565b60405180910390fd5b610bbf600a61178f565b610bc985856117a5565b610bd384846117c3565b8473ffffffffffffffffffffffffffffffffffffffff16847f2169fca571ac413a2cd58ee7ce0947380b8aa3a5fc6dab5b6fcc5a5c14a2d3c085604051610c1a9190612f83565b60405180910390a3839150509392505050565b60098054610c3a906134e9565b80601f0160208091040260200160405190810160405280929190818152602001828054610c66906134e9565b8015610cb35780601f10610c8857610100808354040283529160200191610cb3565b820191906000526020600020905b815481529060010190602001808311610c9657829003601f168201915b505050505081565b60008073ffffffffffffffffffffffffffffffffffffffff168273ffffffffffffffffffffffffffffffffffffffff161415610d2c576040517f08c379a0000000000000000000000000000000000000000000000000000000008152600401610d2390613085565b60405180910390fd5b600360008373ffffffffffffffffffffffffffffffffffffffff1673ffffffffffffffffffffffffffffffffffffffff168152602001908152602001600020549050919050565b6000610d7f600a611837565b905090565b7f7804d923f43a17d325d77e781528e0793b2edd9890ab45fc64efd7b4b427744c81565b60006007600084815260200190815260200160002060000160008373ffffffffffffffffffffffffffffffffffffffff1673ffffffffffffffffffffffffffffffffffffffff16815260200190815260200160002060009054906101000a900460ff16905092915050565b606060018054610e22906134e9565b80601f0160208091040260200160405190810160405280929190818152602001828054610e4e906134e9565b8015610e9b5780601f10610e7057610100808354040283529160200191610e9b565b820191906000526020600020905b815481529060010190602001808311610e7e57829003601f168201915b5050505050905090565b6000801b81565b610ebe610eb7611134565b8383611845565b5050565b610ed3610ecd611134565b836111f5565b610f12576040517f08c379a0000000000000000000000000000000000000000000000000000000008152600401610f09906131a5565b60405180910390fd5b610f1e848484846119b2565b50505050565b6060610f2f82611a0e565b9050919050565b7f9f2df0fed2c77648de5860a4cc508cd0818c85b8b8a1ab4ceeef8d981c8956a681565b610f6382610856565b610f7481610f6f611134565b61152f565b610f7e83836116ad565b505050565b7f65d7a28e3265b37a6474929f336521b332c1681b933f6cb9f3376673440d862a81565b6000600560008473ffffffffffffffffffffffffffffffffffffffff1673ffffffffffffffffffffffffffffffffffffffff16815260200190815260200160002060008373ffffffffffffffffffffffffffffffffffffffff1673ffffffffffffffffffffffffffffffffffffffff16815260200190815260200160002060009054906101000a900460ff16905092915050565b600860009054906101000a900460ff1681565b60007f7965db0b000000000000000000000000000000000000000000000000000000007bffffffffffffffffffffffffffffffffffffffffffffffffffffffff1916827bffffffffffffffffffffffffffffffffffffffffffffffffffffffff191614806110c157506110c082611b60565b5b9050919050565b60008073ffffffffffffffffffffffffffffffffffffffff166002600084815260200190815260200160002060009054906101000a900473ffffffffffffffffffffffffffffffffffffffff1673ffffffffffffffffffffffffffffffffffffffff1614159050919050565b600033905090565b816004600083815260200190815260200160002060006101000a81548173ffffffffffffffffffffffffffffffffffffffff021916908373ffffffffffffffffffffffffffffffffffffffff160217905550808273ffffffffffffffffffffffffffffffffffffffff166111af83610a80565b73ffffffffffffffffffffffffffffffffffffffff167f8c5be1e5ebec7d5bd14f71427d1e84f3dd0314c0f7b2291e5b200ac8c7c3b92560405160405180910390a45050565b6000611200826110c8565b61123f576040517f08c379a000000000000000000000000000000000000000000000000000000000815260040161123690613045565b60405180910390fd5b600061124a83610a80565b90508073ffffffffffffffffffffffffffffffffffffffff168473ffffffffffffffffffffffffffffffffffffffff1614806112b957508373ffffffffffffffffffffffffffffffffffffffff166112a184610659565b73ffffffffffffffffffffffffffffffffffffffff16145b806112ca57506112c98185610fa7565b5b91505092915050565b8273ffffffffffffffffffffffffffffffffffffffff166112f382610a80565b73ffffffffffffffffffffffffffffffffffffffff1614611349576040517f08c379a000000000000000000000000000000000000000000000000000000000815260040161134090613145565b60405180910390fd5b600073ffffffffffffffffffffffffffffffffffffffff168273ffffffffffffffffffffffffffffffffffffffff1614156113b9576040517f08c379a00000000000000000000000000000000000000000000000000000000081526004016113b090613005565b60405180910390fd5b6113c4838383611c42565b6113cf60008261113c565b6001600360008573ffffffffffffffffffffffffffffffffffffffff1673ffffffffffffffffffffffffffffffffffffffff168152602001908152602001600020600082825461141f91906133cb565b925050819055506001600360008473ffffffffffffffffffffffffffffffffffffffff1673ffffffffffffffffffffffffffffffffffffffff168152602001908152602001600020600082825461147691906132ea565b92505081905550816002600083815260200190815260200160002060006101000a81548173ffffffffffffffffffffffffffffffffffffffff021916908373ffffffffffffffffffffffffffffffffffffffff160217905550808273ffffffffffffffffffffffffffffffffffffffff168473ffffffffffffffffffffffffffffffffffffffff167fddf252ad1be2c89b69c2b068fc378daa952ba7f163c4a11628f55a4df523b3ef60405160405180910390a4505050565b6115398282610da8565b6115c85761155e8173ffffffffffffffffffffffffffffffffffffffff166014611c47565b61156c8360001c6020611c47565b60405160200161157d929190612eac565b6040516020818303038152906040526040517f08c379a00000000000000000000000000000000000000000000000000000000081526004016115bf9190612f83565b60405180910390fd5b5050565b6115d68282610da8565b6116a95760016007600084815260200190815260200160002060000160008373ffffffffffffffffffffffffffffffffffffffff1673ffffffffffffffffffffffffffffffffffffffff16815260200190815260200160002060006101000a81548160ff02191690831515021790555061164e611134565b73ffffffffffffffffffffffffffffffffffffffff168173ffffffffffffffffffffffffffffffffffffffff16837f2f8788117e7eff1d82e926ec794901d17c78024a50270940304540a733656f0d60405160405180910390a45b5050565b6116b78282610da8565b1561178b5760006007600084815260200190815260200160002060000160008373ffffffffffffffffffffffffffffffffffffffff1673ffffffffffffffffffffffffffffffffffffffff16815260200190815260200160002060006101000a81548160ff021916908315150217905550611730611134565b73ffffffffffffffffffffffffffffffffffffffff168173ffffffffffffffffffffffffffffffffffffffff16837ff6391f5c32d9c69d2a47ea670b442974b53935d1edc7fd64eb21e047a839171b60405160405180910390a45b5050565b6001816000016000828254019250508190555050565b6117bf828260405180602001604052806000815250611e83565b5050565b6117cc826110c8565b61180b576040517f08c379a0000000000000000000000000000000000000000000000000000000008152600401611802906130c5565b60405180910390fd5b8060066000848152602001908152602001600020908051906020019061183292919061255a565b505050565b600081600001549050919050565b8173ffffffffffffffffffffffffffffffffffffffff168373ffffffffffffffffffffffffffffffffffffffff1614156118b4576040517f08c379a00000000000000000000000000000000000000000000000000000000081526004016118ab90613025565b60405180910390fd5b80600560008573ffffffffffffffffffffffffffffffffffffffff1673ffffffffffffffffffffffffffffffffffffffff16815260200190815260200160002060008473ffffffffffffffffffffffffffffffffffffffff1673ffffffffffffffffffffffffffffffffffffffff16815260200190815260200160002060006101000a81548160ff0219169083151502179055508173ffffffffffffffffffffffffffffffffffffffff168373ffffffffffffffffffffffffffffffffffffffff167f17307eab39ab6107e8899845ad3d59bd9653f200f220920489ca2b5937696c31836040516119a59190612f4d565b60405180910390a3505050565b6119bd8484846112d3565b6119c984848484611ede565b611a08576040517f08c379a00000000000000000000000000000000000000000000000000000000081526004016119ff90612fc5565b60405180910390fd5b50505050565b6060611a19826110c8565b611a58576040517f08c379a0000000000000000000000000000000000000000000000000000000008152600401611a4f90613105565b60405180910390fd5b6000600660008481526020019081526020016000208054611a78906134e9565b80601f0160208091040260200160405190810160405280929190818152602001828054611aa4906134e9565b8015611af15780601f10611ac657610100808354040283529160200191611af1565b820191906000526020600020905b815481529060010190602001808311611ad457829003601f168201915b505050505090506000611b02612075565b9050600081511415611b18578192505050611b5b565b600082511115611b4d578082604051602001611b35929190612e88565b60405160208183030381529060405292505050611b5b565b611b5684612107565b925050505b919050565b60007f80ac58cd000000000000000000000000000000000000000000000000000000007bffffffffffffffffffffffffffffffffffffffffffffffffffffffff1916827bffffffffffffffffffffffffffffffffffffffffffffffffffffffff19161480611c2b57507f5b5e139f000000000000000000000000000000000000000000000000000000007bffffffffffffffffffffffffffffffffffffffffffffffffffffffff1916827bffffffffffffffffffffffffffffffffffffffffffffffffffffffff1916145b80611c3b5750611c3a826121ae565b5b9050919050565b505050565b606060006002836002611c5a9190613371565b611c6491906132ea565b67ffffffffffffffff811115611c7d57611c7c613682565b5b6040519080825280601f01601f191660200182016040528015611caf5781602001600182028036833780820191505090505b5090507f300000000000000000000000000000000000000000000000000000000000000081600081518110611ce757611ce6613653565b5b60200101907effffffffffffffffffffffffffffffffffffffffffffffffffffffffffffff1916908160001a9053507f780000000000000000000000000000000000000000000000000000000000000081600181518110611d4b57611d4a613653565b5b60200101907effffffffffffffffffffffffffffffffffffffffffffffffffffffffffffff1916908160001a90535060006001846002611d8b9190613371565b611d9591906132ea565b90505b6001811115611e35577f3031323334353637383961626364656600000000000000000000000000000000600f861660108110611dd757611dd6613653565b5b1a60f81b828281518110611dee57611ded613653565b5b60200101907effffffffffffffffffffffffffffffffffffffffffffffffffffffffffffff1916908160001a905350600485901c945080611e2e906134bf565b9050611d98565b5060008414611e79576040517f08c379a0000000000000000000000000000000000000000000000000000000008152600401611e7090612fa5565b60405180910390fd5b8091505092915050565b611e8d8383612218565b611e9a6000848484611ede565b611ed9576040517f08c379a0000000000000000000000000000000000000000000000000000000008152600401611ed090612fc5565b60405180910390fd5b505050565b6000611eff8473ffffffffffffffffffffffffffffffffffffffff166123e6565b15612068578373ffffffffffffffffffffffffffffffffffffffff1663150b7a02611f28611134565b8786866040518563ffffffff1660e01b8152600401611f4a9493929190612f01565b602060405180830381600087803b158015611f6457600080fd5b505af1925050508015611f9557506040513d601f19601f82011682018060405250810190611f929190612a27565b60015b612018573d8060008114611fc5576040519150601f19603f3d011682016040523d82523d6000602084013e611fca565b606091505b50600081511415612010576040517f08c379a000000000000000000000000000000000000000000000000000000000815260040161200790612fc5565b60405180910390fd5b805181602001fd5b63150b7a0260e01b7bffffffffffffffffffffffffffffffffffffffffffffffffffffffff1916817bffffffffffffffffffffffffffffffffffffffffffffffffffffffff19161491505061206d565b600190505b949350505050565b606060098054612084906134e9565b80601f01602080910402602001604051908101604052809291908181526020018280546120b0906134e9565b80156120fd5780601f106120d2576101008083540402835291602001916120fd565b820191906000526020600020905b8154815290600101906020018083116120e057829003601f168201915b5050505050905090565b6060612112826110c8565b612151576040517f08c379a000000000000000000000000000000000000000000000000000000000815260040161214890613165565b60405180910390fd5b600061215b612075565b9050600081511161217b57604051806020016040528060008152506121a6565b80612185846123f9565b604051602001612196929190612e88565b6040516020818303038152906040525b915050919050565b60007f01ffc9a7000000000000000000000000000000000000000000000000000000007bffffffffffffffffffffffffffffffffffffffffffffffffffffffff1916827bffffffffffffffffffffffffffffffffffffffffffffffffffffffff1916149050919050565b600073ffffffffffffffffffffffffffffffffffffffff168273ffffffffffffffffffffffffffffffffffffffff161415612288576040517f08c379a000000000000000000000000000000000000000000000000000000000815260040161227f906130e5565b60405180910390fd5b612291816110c8565b156122d1576040517f08c379a00000000000000000000000000000000000000000000000000000000081526004016122c890612fe5565b60405180910390fd5b6122dd60008383611c42565b6001600360008473ffffffffffffffffffffffffffffffffffffffff1673ffffffffffffffffffffffffffffffffffffffff168152602001908152602001600020600082825461232d91906132ea565b92505081905550816002600083815260200190815260200160002060006101000a81548173ffffffffffffffffffffffffffffffffffffffff021916908373ffffffffffffffffffffffffffffffffffffffff160217905550808273ffffffffffffffffffffffffffffffffffffffff16600073ffffffffffffffffffffffffffffffffffffffff167fddf252ad1be2c89b69c2b068fc378daa952ba7f163c4a11628f55a4df523b3ef60405160405180910390a45050565b600080823b905060008111915050919050565b60606000821415612441576040518060400160405280600181526020017f30000000000000000000000000000000000000000000000000000000000000008152509050612555565b600082905060005b6000821461247357808061245c9061354c565b915050600a8261246c9190613340565b9150612449565b60008167ffffffffffffffff81111561248f5761248e613682565b5b6040519080825280601f01601f1916602001820160405280156124c15781602001600182028036833780820191505090505b5090505b6000851461254e576001826124da91906133cb565b9150600a856124e99190613595565b60306124f591906132ea565b60f81b81838151811061250b5761250a613653565b5b60200101907effffffffffffffffffffffffffffffffffffffffffffffffffffffffffffff1916908160001a905350600a856125479190613340565b94506124c5565b8093505050505b919050565b828054612566906134e9565b90600052602060002090601f01602090048101928261258857600085556125cf565b82601f106125a157805160ff19168380011785556125cf565b828001600101855582156125cf579182015b828111156125ce5782518255916020019190600101906125b3565b5b5090506125dc91906125e0565b5090565b5b808211156125f95760008160009055506001016125e1565b5090565b600061261061260b84613245565b613220565b90508281526020810184848401111561262c5761262b6136b6565b5b61263784828561347d565b509392505050565b600061265261264d84613276565b613220565b90508281526020810184848401111561266e5761266d6136b6565b5b61267984828561347d565b509392505050565b60008135905061269081613c47565b92915050565b6000813590506126a581613c5e565b92915050565b6000813590506126ba81613c75565b92915050565b6000813590506126cf81613c8c565b92915050565b6000815190506126e481613c8c565b92915050565b600082601f8301126126ff576126fe6136b1565b5b813561270f8482602086016125fd565b91505092915050565b600082601f83011261272d5761272c6136b1565b5b813561273d84826020860161263f565b91505092915050565b60008135905061275581613ca3565b92915050565b600060208284031215612771576127706136c0565b5b600061277f84828501612681565b91505092915050565b6000806040838503121561279f5761279e6136c0565b5b60006127ad85828601612681565b92505060206127be85828601612681565b9150509250929050565b6000806000606084860312156127e1576127e06136c0565b5b60006127ef86828701612681565b935050602061280086828701612681565b925050604061281186828701612746565b9150509250925092565b60008060008060808587031215612835576128346136c0565b5b600061284387828801612681565b945050602061285487828801612681565b935050604061286587828801612746565b925050606085013567ffffffffffffffff811115612886576128856136bb565b5b612892878288016126ea565b91505092959194509250565b600080604083850312156128b5576128b46136c0565b5b60006128c385828601612681565b92505060206128d485828601612696565b9150509250929050565b600080604083850312156128f5576128f46136c0565b5b600061290385828601612681565b925050602061291485828601612746565b9150509250929050565b600080600060608486031215612937576129366136c0565b5b600061294586828701612681565b935050602061295686828701612746565b925050604084013567ffffffffffffffff811115612977576129766136bb565b5b61298386828701612718565b9150509250925092565b6000602082840312156129a3576129a26136c0565b5b60006129b1848285016126ab565b91505092915050565b600080604083850312156129d1576129d06136c0565b5b60006129df858286016126ab565b92505060206129f085828601612681565b9150509250929050565b600060208284031215612a1057612a0f6136c0565b5b6000612a1e848285016126c0565b91505092915050565b600060208284031215612a3d57612a3c6136c0565b5b6000612a4b848285016126d5565b91505092915050565b600060208284031215612a6a57612a696136c0565b5b600082013567ffffffffffffffff811115612a8857612a876136bb565b5b612a9484828501612718565b91505092915050565b600060208284031215612ab357612ab26136c0565b5b6000612ac184828501612746565b91505092915050565b612ad3816133ff565b82525050565b612ae281613411565b82525050565b612af18161341d565b82525050565b6000612b02826132a7565b612b0c81856132bd565b9350612b1c81856020860161348c565b612b25816136c5565b840191505092915050565b6000612b3b826132b2565b612b4581856132ce565b9350612b5581856020860161348c565b612b5e816136c5565b840191505092915050565b6000612b74826132b2565b612b7e81856132df565b9350612b8e81856020860161348c565b80840191505092915050565b6000612ba76020836132ce565b9150612bb2826136d6565b602082019050919050565b6000612bca6032836132ce565b9150612bd5826136ff565b604082019050919050565b6000612bed601c836132ce565b9150612bf88261374e565b602082019050919050565b6000612c106024836132ce565b9150612c1b82613777565b604082019050919050565b6000612c336019836132ce565b9150612c3e826137c6565b602082019050919050565b6000612c56602c836132ce565b9150612c61826137ef565b604082019050919050565b6000612c796038836132ce565b9150612c848261383e565b604082019050919050565b6000612c9c602a836132ce565b9150612ca78261388d565b604082019050919050565b6000612cbf6029836132ce565b9150612cca826138dc565b604082019050919050565b6000612ce2602e836132ce565b9150612ced8261392b565b604082019050919050565b6000612d056020836132ce565b9150612d108261397a565b602082019050919050565b6000612d286031836132ce565b9150612d33826139a3565b604082019050919050565b6000612d4b602c836132ce565b9150612d56826139f2565b604082019050919050565b6000612d6e6029836132ce565b9150612d7982613a41565b604082019050919050565b6000612d91602f836132ce565b9150612d9c82613a90565b604082019050919050565b6000612db46021836132ce565b9150612dbf82613adf565b604082019050919050565b6000612dd76031836132ce565b9150612de282613b2e565b604082019050919050565b6000612dfa6011836132ce565b9150612e0582613b7d565b602082019050919050565b6000612e1d6017836132df565b9150612e2882613ba6565b601782019050919050565b6000612e406011836132df565b9150612e4b82613bcf565b601182019050919050565b6000612e63602f836132ce565b9150612e6e82613bf8565b604082019050919050565b612e8281613473565b82525050565b6000612e948285612b69565b9150612ea08284612b69565b91508190509392505050565b6000612eb782612e10565b9150612ec38285612b69565b9150612ece82612e33565b9150612eda8284612b69565b91508190509392505050565b6000602082019050612efb6000830184612aca565b92915050565b6000608082019050612f166000830187612aca565b612f236020830186612aca565b612f306040830185612e79565b8181036060830152612f428184612af7565b905095945050505050565b6000602082019050612f626000830184612ad9565b92915050565b6000602082019050612f7d6000830184612ae8565b92915050565b60006020820190508181036000830152612f9d8184612b30565b905092915050565b60006020820190508181036000830152612fbe81612b9a565b9050919050565b60006020820190508181036000830152612fde81612bbd565b9050919050565b60006020820190508181036000830152612ffe81612be0565b9050919050565b6000602082019050818103600083015261301e81612c03565b9050919050565b6000602082019050818103600083015261303e81612c26565b9050919050565b6000602082019050818103600083015261305e81612c49565b9050919050565b6000602082019050818103600083015261307e81612c6c565b9050919050565b6000602082019050818103600083015261309e81612c8f565b9050919050565b600060208201905081810360008301526130be81612cb2565b9050919050565b600060208201905081810360008301526130de81612cd5565b9050919050565b600060208201905081810360008301526130fe81612cf8565b9050919050565b6000602082019050818103600083015261311e81612d1b565b9050919050565b6000602082019050818103600083015261313e81612d3e565b9050919050565b6000602082019050818103600083015261315e81612d61565b9050919050565b6000602082019050818103600083015261317e81612d84565b9050919050565b6000602082019050818103600083015261319e81612da7565b9050919050565b600060208201905081810360008301526131be81612dca565b9050919050565b600060208201905081810360008301526131de81612ded565b9050919050565b600060208201905081810360008301526131fe81612e56565b9050919050565b600060208201905061321a6000830184612e79565b92915050565b600061322a61323b565b9050613236828261351b565b919050565b6000604051905090565b600067ffffffffffffffff8211156132605761325f613682565b5b613269826136c5565b9050602081019050919050565b600067ffffffffffffffff82111561329157613290613682565b5b61329a826136c5565b9050602081019050919050565b600081519050919050565b600081519050919050565b600082825260208201905092915050565b600082825260208201905092915050565b600081905092915050565b60006132f582613473565b915061330083613473565b9250827fffffffffffffffffffffffffffffffffffffffffffffffffffffffffffffffff03821115613335576133346135c6565b5b828201905092915050565b600061334b82613473565b915061335683613473565b925082613366576133656135f5565b5b828204905092915050565b600061337c82613473565b915061338783613473565b9250817fffffffffffffffffffffffffffffffffffffffffffffffffffffffffffffffff04831182151516156133c0576133bf6135c6565b5b828202905092915050565b60006133d682613473565b91506133e183613473565b9250828210156133f4576133f36135c6565b5b828203905092915050565b600061340a82613453565b9050919050565b60008115159050919050565b6000819050919050565b60007fffffffff0000000000000000000000000000000000000000000000000000000082169050919050565b600073ffffffffffffffffffffffffffffffffffffffff82169050919050565b6000819050919050565b82818337600083830152505050565b60005b838110156134aa57808201518184015260208101905061348f565b838111156134b9576000848401525b50505050565b60006134ca82613473565b915060008214156134de576134dd6135c6565b5b600182039050919050565b6000600282049050600182168061350157607f821691505b6020821081141561351557613514613624565b5b50919050565b613524826136c5565b810181811067ffffffffffffffff8211171561354357613542613682565b5b80604052505050565b600061355782613473565b91507fffffffffffffffffffffffffffffffffffffffffffffffffffffffffffffffff82141561358a576135896135c6565b5b600182019050919050565b60006135a082613473565b91506135ab83613473565b9250826135bb576135ba6135f5565b5b828206905092915050565b7f4e487b7100000000000000000000000000000000000000000000000000000000600052601160045260246000fd5b7f4e487b7100000000000000000000000000000000000000000000000000000000600052601260045260246000fd5b7f4e487b7100000000000000000000000000000000000000000000000000000000600052602260045260246000fd5b7f4e487b7100000000000000000000000000000000000000000000000000000000600052603260045260246000fd5b7f4e487b7100000000000000000000000000000000000000000000000000000000600052604160045260246000fd5b600080fd5b600080fd5b600080fd5b600080fd5b6000601f19601f8301169050919050565b7f537472696e67733a20686578206c656e67746820696e73756666696369656e74600082015250565b7f4552433732313a207472616e7366657220746f206e6f6e20455243373231526560008201527f63656976657220696d706c656d656e7465720000000000000000000000000000602082015250565b7f4552433732313a20746f6b656e20616c7265616479206d696e74656400000000600082015250565b7f4552433732313a207472616e7366657220746f20746865207a65726f2061646460008201527f7265737300000000000000000000000000000000000000000000000000000000602082015250565b7f4552433732313a20617070726f766520746f2063616c6c657200000000000000600082015250565b7f4552433732313a206f70657261746f7220717565727920666f72206e6f6e657860008201527f697374656e7420746f6b656e0000000000000000000000000000000000000000602082015250565b7f4552433732313a20617070726f76652063616c6c6572206973206e6f74206f7760008201527f6e6572206e6f7220617070726f76656420666f7220616c6c0000000000000000602082015250565b7f4552433732313a2062616c616e636520717565727920666f7220746865207a6560008201527f726f206164647265737300000000000000000000000000000000000000000000602082015250565b7f4552433732313a206f776e657220717565727920666f72206e6f6e657869737460008201527f656e7420746f6b656e0000000000000000000000000000000000000000000000602082015250565b7f45524337323155524953746f726167653a2055524920736574206f66206e6f6e60008201527f6578697374656e7420746f6b656e000000000000000000000000000000000000602082015250565b7f4552433732313a206d696e7420746f20746865207a65726f2061646472657373600082015250565b7f45524337323155524953746f726167653a2055524920717565727920666f722060008201527f6e6f6e6578697374656e7420746f6b656e000000000000000000000000000000602082015250565b7f4552433732313a20617070726f76656420717565727920666f72206e6f6e657860008201527f697374656e7420746f6b656e0000000000000000000000000000000000000000602082015250565b7f4552433732313a207472616e73666572206f6620746f6b656e2074686174206960008201527f73206e6f74206f776e0000000000000000000000000000000000000000000000602082015250565b7f4552433732314d657461646174613a2055524920717565727920666f72206e6f60008201527f6e6578697374656e7420746f6b656e0000000000000000000000000000000000602082015250565b7f4552433732313a20617070726f76616c20746f2063757272656e74206f776e6560008201527f7200000000000000000000000000000000000000000000000000000000000000602082015250565b7f4552433732313a207472616e736665722063616c6c6572206973206e6f74206f60008201527f776e6572206e6f7220617070726f766564000000000000000000000000000000602082015250565b7f4d696e74696e6720697320706175736564000000000000000000000000000000600082015250565b7f416363657373436f6e74726f6c3a206163636f756e7420000000000000000000600082015250565b7f206973206d697373696e6720726f6c6520000000000000000000000000000000600082015250565b7f416363657373436f6e74726f6c3a2063616e206f6e6c792072656e6f756e636560008201527f20726f6c657320666f722073656c660000000000000000000000000000000000602082015250565b613c50816133ff565b8114613c5b57600080fd5b50565b613c6781613411565b8114613c7257600080fd5b50565b613c7e8161341d565b8114613c8957600080fd5b50565b613c9581613427565b8114613ca057600080fd5b50565b613cac81613473565b8114613cb757600080fd5b5056fea264697066735822122011108ca9ba4dc7f2424716a69ee385a2d91f85b94dd88d606400ecc6af37d4f264736f6c63430008060033",
  "linkReferences": {},
  "deployedLinkReferences": {}
}