{
  "_format": "hh-sol-artifact-1",
  "contractName": "TweetToken",
  "sourceName": "contracts/TweetToken.sol",
  "abi": [
    {
      "inputs": [
        {
          "internalType": "string",
          "name": "_newBaseURI",
          "type": "string"
        }
      ],
      "stateMutability": "nonpayable",
      "type": "constructor"
    },
    {
      "anonymous": false,
      "inputs": [
        {
          "indexed": true,
          "internalType": "address",
          "name": "owner",
          "type": "address"
        },
        {
          "indexed": true,
          "internalType": "address",
          "name": "approved",
          "type": "address"
        },
        {
          "indexed": true,
          "internalType": "uint256",
          "name": "tokenId",
          "type": "uint256"
        }
      ],
      "name": "Approval",
      "type": "event"
    },
    {
      "anonymous": false,
      "inputs": [
        {
          "indexed": true,
          "internalType": "address",
          "name": "owner",
          "type": "address"
        },
        {
          "indexed": true,
          "internalType": "address",
          "name": "operator",
          "type": "address"
        },
        {
          "indexed": false,
          "internalType": "bool",
          "name": "approved",
          "type": "bool"
        }
      ],
      "name": "ApprovalForAll",
      "type": "event"
    },
    {
      "anonymous": false,
      "inputs": [
        {
          "indexed": true,
          "internalType": "address",
          "name": "previousOwner",
          "type": "address"
        },
        {
          "indexed": true,
          "internalType": "address",
          "name": "newOwner",
          "type": "address"
        }
      ],
      "name": "OwnershipTransferred",
      "type": "event"
    },
    {
      "anonymous": false,
      "inputs": [
        {
          "indexed": true,
          "internalType": "uint256",
          "name": "tweetId",
          "type": "uint256"
        },
        {
          "indexed": false,
          "internalType": "string",
          "name": "tokenURI",
          "type": "string"
        },
        {
          "indexed": false,
          "internalType": "address",
          "name": "minter",
          "type": "address"
        }
      ],
      "name": "TokenCreated",
      "type": "event"
    },
    {
      "anonymous": false,
      "inputs": [
        {
          "indexed": true,
          "internalType": "address",
          "name": "from",
          "type": "address"
        },
        {
          "indexed": true,
          "internalType": "address",
          "name": "to",
          "type": "address"
        },
        {
          "indexed": true,
          "internalType": "uint256",
          "name": "tokenId",
          "type": "uint256"
        }
      ],
      "name": "Transfer",
      "type": "event"
    },
    {
      "anonymous": false,
      "inputs": [
        {
          "indexed": true,
          "internalType": "uint256",
          "name": "tweetId",
          "type": "uint256"
        },
        {
          "indexed": false,
          "internalType": "address",
          "name": "deployer",
          "type": "address"
        }
      ],
      "name": "TweetVerified",
      "type": "event"
    },
    {
      "inputs": [
        {
          "internalType": "address",
          "name": "_account",
          "type": "address"
        },
        {
          "internalType": "uint256",
          "name": "_tweetId",
          "type": "uint256"
        },
        {
          "internalType": "string",
          "name": "_tokenURI",
          "type": "string"
        }
      ],
      "name": "addVerifiedTweet",
      "outputs": [],
      "stateMutability": "nonpayable",
      "type": "function"
    },
    {
      "inputs": [
        {
          "internalType": "address",
          "name": "to",
          "type": "address"
        },
        {
          "internalType": "uint256",
          "name": "tokenId",
          "type": "uint256"
        }
      ],
      "name": "approve",
      "outputs": [],
      "stateMutability": "nonpayable",
      "type": "function"
    },
    {
      "inputs": [
        {
          "internalType": "address",
          "name": "owner",
          "type": "address"
        }
      ],
      "name": "balanceOf",
      "outputs": [
        {
          "internalType": "uint256",
          "name": "",
          "type": "uint256"
        }
      ],
      "stateMutability": "view",
      "type": "function"
    },
    {
      "inputs": [],
      "name": "baseURI",
      "outputs": [
        {
          "internalType": "string",
          "name": "",
          "type": "string"
        }
      ],
      "stateMutability": "view",
      "type": "function"
    },
    {
      "inputs": [],
      "name": "flipSaleState",
      "outputs": [
        {
          "internalType": "bool",
          "name": "",
          "type": "bool"
        }
      ],
      "stateMutability": "nonpayable",
      "type": "function"
    },
    {
      "inputs": [
        {
          "internalType": "uint256",
          "name": "tokenId",
          "type": "uint256"
        }
      ],
      "name": "getApproved",
      "outputs": [
        {
          "internalType": "address",
          "name": "",
          "type": "address"
        }
      ],
      "stateMutability": "view",
      "type": "function"
    },
    {
      "inputs": [],
      "name": "getTokenCount",
      "outputs": [
        {
          "internalType": "uint256",
          "name": "",
          "type": "uint256"
        }
      ],
      "stateMutability": "view",
      "type": "function"
    },
    {
      "inputs": [
        {
          "internalType": "address",
          "name": "owner",
          "type": "address"
        },
        {
          "internalType": "address",
          "name": "operator",
          "type": "address"
        }
      ],
      "name": "isApprovedForAll",
      "outputs": [
        {
          "internalType": "bool",
          "name": "",
          "type": "bool"
        }
      ],
      "stateMutability": "view",
      "type": "function"
    },
    {
      "inputs": [
        {
          "internalType": "uint256",
          "name": "tweetId",
          "type": "uint256"
        }
      ],
      "name": "mintTweet",
      "outputs": [
        {
          "internalType": "uint256",
          "name": "",
          "type": "uint256"
        }
      ],
      "stateMutability": "nonpayable",
      "type": "function"
    },
    {
      "inputs": [],
      "name": "name",
      "outputs": [
        {
          "internalType": "string",
          "name": "",
          "type": "string"
        }
      ],
      "stateMutability": "view",
      "type": "function"
    },
    {
      "inputs": [],
      "name": "owner",
      "outputs": [
        {
          "internalType": "address",
          "name": "",
          "type": "address"
        }
      ],
      "stateMutability": "view",
      "type": "function"
    },
    {
      "inputs": [
        {
          "internalType": "uint256",
          "name": "tokenId",
          "type": "uint256"
        }
      ],
      "name": "ownerOf",
      "outputs": [
        {
          "internalType": "address",
          "name": "",
          "type": "address"
        }
      ],
      "stateMutability": "view",
      "type": "function"
    },
    {
      "inputs": [],
      "name": "renounceOwnership",
      "outputs": [],
      "stateMutability": "nonpayable",
      "type": "function"
    },
    {
      "inputs": [
        {
          "internalType": "address",
          "name": "from",
          "type": "address"
        },
        {
          "internalType": "address",
          "name": "to",
          "type": "address"
        },
        {
          "internalType": "uint256",
          "name": "tokenId",
          "type": "uint256"
        }
      ],
      "name": "safeTransferFrom",
      "outputs": [],
      "stateMutability": "nonpayable",
      "type": "function"
    },
    {
      "inputs": [
        {
          "internalType": "address",
          "name": "from",
          "type": "address"
        },
        {
          "internalType": "address",
          "name": "to",
          "type": "address"
        },
        {
          "internalType": "uint256",
          "name": "tokenId",
          "type": "uint256"
        },
        {
          "internalType": "bytes",
          "name": "_data",
          "type": "bytes"
        }
      ],
      "name": "safeTransferFrom",
      "outputs": [],
      "stateMutability": "nonpayable",
      "type": "function"
    },
    {
      "inputs": [],
      "name": "saleIsActive",
      "outputs": [
        {
          "internalType": "bool",
          "name": "",
          "type": "bool"
        }
      ],
      "stateMutability": "view",
      "type": "function"
    },
    {
      "inputs": [
        {
          "internalType": "address",
          "name": "operator",
          "type": "address"
        },
        {
          "internalType": "bool",
          "name": "approved",
          "type": "bool"
        }
      ],
      "name": "setApprovalForAll",
      "outputs": [],
      "stateMutability": "nonpayable",
      "type": "function"
    },
    {
      "inputs": [
        {
          "internalType": "string",
          "name": "_newBaseURI",
          "type": "string"
        }
      ],
      "name": "setBaseURI",
      "outputs": [
        {
          "internalType": "string",
          "name": "",
          "type": "string"
        }
      ],
      "stateMutability": "nonpayable",
      "type": "function"
    },
    {
      "inputs": [
        {
          "internalType": "bytes4",
          "name": "interfaceId",
          "type": "bytes4"
        }
      ],
      "name": "supportsInterface",
      "outputs": [
        {
          "internalType": "bool",
          "name": "",
          "type": "bool"
        }
      ],
      "stateMutability": "view",
      "type": "function"
    },
    {
      "inputs": [],
      "name": "symbol",
      "outputs": [
        {
          "internalType": "string",
          "name": "",
          "type": "string"
        }
      ],
      "stateMutability": "view",
      "type": "function"
    },
    {
      "inputs": [
        {
          "internalType": "uint256",
          "name": "tokenId",
          "type": "uint256"
        }
      ],
      "name": "tokenURI",
      "outputs": [
        {
          "internalType": "string",
          "name": "",
          "type": "string"
        }
      ],
      "stateMutability": "view",
      "type": "function"
    },
    {
      "inputs": [
        {
          "internalType": "address",
          "name": "from",
          "type": "address"
        },
        {
          "internalType": "address",
          "name": "to",
          "type": "address"
        },
        {
          "internalType": "uint256",
          "name": "tokenId",
          "type": "uint256"
        }
      ],
      "name": "transferFrom",
      "outputs": [],
      "stateMutability": "nonpayable",
      "type": "function"
    },
    {
      "inputs": [
        {
          "internalType": "address",
          "name": "newOwner",
          "type": "address"
        }
      ],
      "name": "transferOwnership",
      "outputs": [],
      "stateMutability": "nonpayable",
      "type": "function"
    },
    {
      "inputs": [
        {
          "internalType": "uint256",
          "name": "",
          "type": "uint256"
        }
      ],
      "name": "tweetIdToTokenURI",
      "outputs": [
        {
          "internalType": "string",
          "name": "",
          "type": "string"
        }
      ],
      "stateMutability": "view",
      "type": "function"
    }
  ],
  "bytecode": "0x60806040523480156200001157600080fd5b5060405162003ff638038062003ff683398181016040528101906200003791906200032e565b6040518060400160405280600d81526020017f7477656574746f6b656e2e696f000000000000000000000000000000000000008152506040518060400160405280600381526020017f54545400000000000000000000000000000000000000000000000000000000008152508160009080519060200190620000bb92919062000200565b508060019080519060200190620000d492919062000200565b505050620000f7620000eb6200013260201b60201c565b6200013a60201b60201c565b80600a90805190602001906200010f92919062000200565b506000600960006101000a81548160ff0219169083151502179055505062000503565b600033905090565b6000600760009054906101000a900473ffffffffffffffffffffffffffffffffffffffff16905081600760006101000a81548173ffffffffffffffffffffffffffffffffffffffff021916908373ffffffffffffffffffffffffffffffffffffffff1602179055508173ffffffffffffffffffffffffffffffffffffffff168173ffffffffffffffffffffffffffffffffffffffff167f8be0079c531659141344cd1fd0a4f28419497f9722a3daafe3b4186f6b6457e060405160405180910390a35050565b8280546200020e9062000414565b90600052602060002090601f0160209004810192826200023257600085556200027e565b82601f106200024d57805160ff19168380011785556200027e565b828001600101855582156200027e579182015b828111156200027d57825182559160200191906001019062000260565b5b5090506200028d919062000291565b5090565b5b80821115620002ac57600081600090555060010162000292565b5090565b6000620002c7620002c184620003a8565b6200037f565b905082815260208101848484011115620002e657620002e5620004e3565b5b620002f3848285620003de565b509392505050565b600082601f830112620003135762000312620004de565b5b815162000325848260208601620002b0565b91505092915050565b600060208284031215620003475762000346620004ed565b5b600082015167ffffffffffffffff811115620003685762000367620004e8565b5b6200037684828501620002fb565b91505092915050565b60006200038b6200039e565b90506200039982826200044a565b919050565b6000604051905090565b600067ffffffffffffffff821115620003c657620003c5620004af565b5b620003d182620004f2565b9050602081019050919050565b60005b83811015620003fe578082015181840152602081019050620003e1565b838111156200040e576000848401525b50505050565b600060028204905060018216806200042d57607f821691505b6020821081141562000444576200044362000480565b5b50919050565b6200045582620004f2565b810181811067ffffffffffffffff82111715620004775762000476620004af565b5b80604052505050565b7f4e487b7100000000000000000000000000000000000000000000000000000000600052602260045260246000fd5b7f4e487b7100000000000000000000000000000000000000000000000000000000600052604160045260246000fd5b600080fd5b600080fd5b600080fd5b600080fd5b6000601f19601f8301169050919050565b613ae380620005136000396000f3fe608060405234801561001057600080fd5b50600436106101585760003560e01c806370a08231116100c3578063b88d4fde1161007c578063b88d4fde146103db578063c87b56dd146103f7578063cb9b3d1214610427578063e985e9c514610443578063eb8d244414610473578063f2fde38b1461049157610158565b806370a082311461032b578063715018a61461035b57806378a89567146103655780638da5cb5b1461038357806395d89b41146103a1578063a22cb465146103bf57610158565b806330d2d4da1161011557806330d2d4da1461024357806334918dfd1461027357806342842e0e1461029157806355f804b3146102ad5780636352211e146102dd5780636c0360eb1461030d57610158565b806301ffc9a71461015d57806306fdde031461018d578063081812fc146101ab578063095ea7b3146101db57806323b872dd146101f7578063299ffdaa14610213575b600080fd5b610177600480360381019061017291906127f1565b6104ad565b6040516101849190612d7b565b60405180910390f35b61019561058f565b6040516101a29190612d96565b60405180910390f35b6101c560048036038101906101c09190612894565b610621565b6040516101d29190612d14565b60405180910390f35b6101f560048036038101906101f09190612742565b6106a6565b005b610211600480360381019061020c919061262c565b6107be565b005b61022d60048036038101906102289190612894565b61081e565b60405161023a9190612d96565b60405180910390f35b61025d60048036038101906102589190612894565b6108be565b60405161026a9190613088565b60405180910390f35b61027b610a9d565b6040516102889190612d7b565b60405180910390f35b6102ab60048036038101906102a6919061262c565b610b49565b005b6102c760048036038101906102c2919061284b565b610b69565b6040516102d49190612d96565b60405180910390f35b6102f760048036038101906102f29190612894565b610c8d565b6040516103049190612d14565b60405180910390f35b610315610d3f565b6040516103229190612d96565b60405180910390f35b610345600480360381019061034091906125bf565b610dcd565b6040516103529190613088565b60405180910390f35b610363610e85565b005b61036d610f0d565b60405161037a9190613088565b60405180910390f35b61038b610f1e565b6040516103989190612d14565b60405180910390f35b6103a9610f48565b6040516103b69190612d96565b60405180910390f35b6103d960048036038101906103d49190612702565b610fda565b005b6103f560048036038101906103f0919061267f565b610ff0565b005b610411600480360381019061040c9190612894565b611052565b60405161041e9190612d96565b60405180910390f35b610441600480360381019061043c9190612782565b611064565b005b61045d600480360381019061045891906125ec565b61125a565b60405161046a9190612d7b565b60405180910390f35b61047b6112ee565b6040516104889190612d7b565b60405180910390f35b6104ab60048036038101906104a691906125bf565b611301565b005b60007f80ac58cd000000000000000000000000000000000000000000000000000000007bffffffffffffffffffffffffffffffffffffffffffffffffffffffff1916827bffffffffffffffffffffffffffffffffffffffffffffffffffffffff1916148061057857507f5b5e139f000000000000000000000000000000000000000000000000000000007bffffffffffffffffffffffffffffffffffffffffffffffffffffffff1916827bffffffffffffffffffffffffffffffffffffffffffffffffffffffff1916145b806105885750610587826113f9565b5b9050919050565b60606000805461059e906132f3565b80601f01602080910402602001604051908101604052809291908181526020018280546105ca906132f3565b80156106175780601f106105ec57610100808354040283529160200191610617565b820191906000526020600020905b8154815290600101906020018083116105fa57829003601f168201915b5050505050905090565b600061062c82611463565b61066b576040517f08c379a000000000000000000000000000000000000000000000000000000000815260040161066290612f88565b60405180910390fd5b6004600083815260200190815260200160002060009054906101000a900473ffffffffffffffffffffffffffffffffffffffff169050919050565b60006106b182610c8d565b90508073ffffffffffffffffffffffffffffffffffffffff168373ffffffffffffffffffffffffffffffffffffffff161415610722576040517f08c379a000000000000000000000000000000000000000000000000000000000815260040161071990613008565b60405180910390fd5b8073ffffffffffffffffffffffffffffffffffffffff166107416114cf565b73ffffffffffffffffffffffffffffffffffffffff161480610770575061076f8161076a6114cf565b61125a565b5b6107af576040517f08c379a00000000000000000000000000000000000000000000000000000000081526004016107a690612ec8565b60405180910390fd5b6107b983836114d7565b505050565b6107cf6107c96114cf565b82611590565b61080e576040517f08c379a000000000000000000000000000000000000000000000000000000000815260040161080590613048565b60405180910390fd5b61081983838361166e565b505050565b600c602052806000526040600020600091509050805461083d906132f3565b80601f0160208091040260200160405190810160405280929190818152602001828054610869906132f3565b80156108b65780601f1061088b576101008083540402835291602001916108b6565b820191906000526020600020905b81548152906001019060200180831161089957829003601f168201915b505050505081565b6000600960009054906101000a900460ff1661090f576040517f08c379a000000000000000000000000000000000000000000000000000000000815260040161090690613068565b60405180910390fd5b81600b60003373ffffffffffffffffffffffffffffffffffffffff1673ffffffffffffffffffffffffffffffffffffffff1681526020019081526020016000205414610990576040517f08c379a000000000000000000000000000000000000000000000000000000000815260040161098790613028565b60405180910390fd5b61099a60086118ca565b6109a433836118e0565b610a4982600c600085815260200190815260200160002080546109c6906132f3565b80601f01602080910402602001604051908101604052809291908181526020018280546109f2906132f3565b8015610a3f5780601f10610a1457610100808354040283529160200191610a3f565b820191906000526020600020905b815481529060010190602001808311610a2257829003601f168201915b50505050506118fe565b817f2169fca571ac413a2cd58ee7ce0947380b8aa3a5fc6dab5b6fcc5a5c14a2d3c0600c600085815260200190815260200160002033604051610a8d929190612db8565b60405180910390a2819050919050565b6000610aa76114cf565b73ffffffffffffffffffffffffffffffffffffffff16610ac5610f1e565b73ffffffffffffffffffffffffffffffffffffffff1614610b1b576040517f08c379a0000000000000000000000000000000000000000000000000000000008152600401610b1290612fa8565b60405180910390fd5b600960009054906101000a900460ff1615600960006101000a81548160ff0219169083151502179055905090565b610b6483838360405180602001604052806000815250610ff0565b505050565b6060610b736114cf565b73ffffffffffffffffffffffffffffffffffffffff16610b91610f1e565b73ffffffffffffffffffffffffffffffffffffffff1614610be7576040517f08c379a0000000000000000000000000000000000000000000000000000000008152600401610bde90612fa8565b60405180910390fd5b81600a9080519060200190610bfd9291906123d3565b8054610c08906132f3565b80601f0160208091040260200160405190810160405280929190818152602001828054610c34906132f3565b8015610c815780601f10610c5657610100808354040283529160200191610c81565b820191906000526020600020905b815481529060010190602001808311610c6457829003601f168201915b50505050509050919050565b6000806002600084815260200190815260200160002060009054906101000a900473ffffffffffffffffffffffffffffffffffffffff169050600073ffffffffffffffffffffffffffffffffffffffff168173ffffffffffffffffffffffffffffffffffffffff161415610d36576040517f08c379a0000000000000000000000000000000000000000000000000000000008152600401610d2d90612f08565b60405180910390fd5b80915050919050565b600a8054610d4c906132f3565b80601f0160208091040260200160405190810160405280929190818152602001828054610d78906132f3565b8015610dc55780601f10610d9a57610100808354040283529160200191610dc5565b820191906000526020600020905b815481529060010190602001808311610da857829003601f168201915b505050505081565b60008073ffffffffffffffffffffffffffffffffffffffff168273ffffffffffffffffffffffffffffffffffffffff161415610e3e576040517f08c379a0000000000000000000000000000000000000000000000000000000008152600401610e3590612ee8565b60405180910390fd5b600360008373ffffffffffffffffffffffffffffffffffffffff1673ffffffffffffffffffffffffffffffffffffffff168152602001908152602001600020549050919050565b610e8d6114cf565b73ffffffffffffffffffffffffffffffffffffffff16610eab610f1e565b73ffffffffffffffffffffffffffffffffffffffff1614610f01576040517f08c379a0000000000000000000000000000000000000000000000000000000008152600401610ef890612fa8565b60405180910390fd5b610f0b6000611972565b565b6000610f196008611a38565b905090565b6000600760009054906101000a900473ffffffffffffffffffffffffffffffffffffffff16905090565b606060018054610f57906132f3565b80601f0160208091040260200160405190810160405280929190818152602001828054610f83906132f3565b8015610fd05780601f10610fa557610100808354040283529160200191610fd0565b820191906000526020600020905b815481529060010190602001808311610fb357829003601f168201915b5050505050905090565b610fec610fe56114cf565b8383611a46565b5050565b611001610ffb6114cf565b83611590565b611040576040517f08c379a000000000000000000000000000000000000000000000000000000000815260040161103790613048565b60405180910390fd5b61104c84848484611bb3565b50505050565b606061105d82611c0f565b9050919050565b61106c6114cf565b73ffffffffffffffffffffffffffffffffffffffff1661108a610f1e565b73ffffffffffffffffffffffffffffffffffffffff16146110e0576040517f08c379a00000000000000000000000000000000000000000000000000000000081526004016110d790612fa8565b60405180910390fd5b600960009054906101000a900460ff1661112f576040517f08c379a000000000000000000000000000000000000000000000000000000000815260040161112690613068565b60405180910390fd5b6000600b60008573ffffffffffffffffffffffffffffffffffffffff1673ffffffffffffffffffffffffffffffffffffffff16815260200190815260200160002054146111b1576040517f08c379a00000000000000000000000000000000000000000000000000000000081526004016111a890612e48565b60405180910390fd5b81600b60008573ffffffffffffffffffffffffffffffffffffffff1673ffffffffffffffffffffffffffffffffffffffff1681526020019081526020016000208190555080600c6000848152602001908152602001600020908051906020019061121c9291906123d3565b50817f130af255afa3de2b2f272222ec3b9ba1c1304494f0d8428f72316d1a48b3c9ce3360405161124d9190612d14565b60405180910390a2505050565b6000600560008473ffffffffffffffffffffffffffffffffffffffff1673ffffffffffffffffffffffffffffffffffffffff16815260200190815260200160002060008373ffffffffffffffffffffffffffffffffffffffff1673ffffffffffffffffffffffffffffffffffffffff16815260200190815260200160002060009054906101000a900460ff16905092915050565b600960009054906101000a900460ff1681565b6113096114cf565b73ffffffffffffffffffffffffffffffffffffffff16611327610f1e565b73ffffffffffffffffffffffffffffffffffffffff161461137d576040517f08c379a000000000000000000000000000000000000000000000000000000000815260040161137490612fa8565b60405180910390fd5b600073ffffffffffffffffffffffffffffffffffffffff168173ffffffffffffffffffffffffffffffffffffffff1614156113ed576040517f08c379a00000000000000000000000000000000000000000000000000000000081526004016113e490612e08565b60405180910390fd5b6113f681611972565b50565b60007f01ffc9a7000000000000000000000000000000000000000000000000000000007bffffffffffffffffffffffffffffffffffffffffffffffffffffffff1916827bffffffffffffffffffffffffffffffffffffffffffffffffffffffff1916149050919050565b60008073ffffffffffffffffffffffffffffffffffffffff166002600084815260200190815260200160002060009054906101000a900473ffffffffffffffffffffffffffffffffffffffff1673ffffffffffffffffffffffffffffffffffffffff1614159050919050565b600033905090565b816004600083815260200190815260200160002060006101000a81548173ffffffffffffffffffffffffffffffffffffffff021916908373ffffffffffffffffffffffffffffffffffffffff160217905550808273ffffffffffffffffffffffffffffffffffffffff1661154a83610c8d565b73ffffffffffffffffffffffffffffffffffffffff167f8c5be1e5ebec7d5bd14f71427d1e84f3dd0314c0f7b2291e5b200ac8c7c3b92560405160405180910390a45050565b600061159b82611463565b6115da576040517f08c379a00000000000000000000000000000000000000000000000000000000081526004016115d190612ea8565b60405180910390fd5b60006115e583610c8d565b90508073ffffffffffffffffffffffffffffffffffffffff168473ffffffffffffffffffffffffffffffffffffffff16148061165457508373ffffffffffffffffffffffffffffffffffffffff1661163c84610621565b73ffffffffffffffffffffffffffffffffffffffff16145b806116655750611664818561125a565b5b91505092915050565b8273ffffffffffffffffffffffffffffffffffffffff1661168e82610c8d565b73ffffffffffffffffffffffffffffffffffffffff16146116e4576040517f08c379a00000000000000000000000000000000000000000000000000000000081526004016116db90612fc8565b60405180910390fd5b600073ffffffffffffffffffffffffffffffffffffffff168273ffffffffffffffffffffffffffffffffffffffff161415611754576040517f08c379a000000000000000000000000000000000000000000000000000000000815260040161174b90612e68565b60405180910390fd5b61175f838383611d61565b61176a6000826114d7565b6001600360008573ffffffffffffffffffffffffffffffffffffffff1673ffffffffffffffffffffffffffffffffffffffff16815260200190815260200160002060008282546117ba9190613209565b925050819055506001600360008473ffffffffffffffffffffffffffffffffffffffff1673ffffffffffffffffffffffffffffffffffffffff16815260200190815260200160002060008282546118119190613182565b92505081905550816002600083815260200190815260200160002060006101000a81548173ffffffffffffffffffffffffffffffffffffffff021916908373ffffffffffffffffffffffffffffffffffffffff160217905550808273ffffffffffffffffffffffffffffffffffffffff168473ffffffffffffffffffffffffffffffffffffffff167fddf252ad1be2c89b69c2b068fc378daa952ba7f163c4a11628f55a4df523b3ef60405160405180910390a4505050565b6001816000016000828254019250508190555050565b6118fa828260405180602001604052806000815250611d66565b5050565b61190782611463565b611946576040517f08c379a000000000000000000000000000000000000000000000000000000000815260040161193d90612f28565b60405180910390fd5b8060066000848152602001908152602001600020908051906020019061196d9291906123d3565b505050565b6000600760009054906101000a900473ffffffffffffffffffffffffffffffffffffffff16905081600760006101000a81548173ffffffffffffffffffffffffffffffffffffffff021916908373ffffffffffffffffffffffffffffffffffffffff1602179055508173ffffffffffffffffffffffffffffffffffffffff168173ffffffffffffffffffffffffffffffffffffffff167f8be0079c531659141344cd1fd0a4f28419497f9722a3daafe3b4186f6b6457e060405160405180910390a35050565b600081600001549050919050565b8173ffffffffffffffffffffffffffffffffffffffff168373ffffffffffffffffffffffffffffffffffffffff161415611ab5576040517f08c379a0000000000000000000000000000000000000000000000000000000008152600401611aac90612e88565b60405180910390fd5b80600560008573ffffffffffffffffffffffffffffffffffffffff1673ffffffffffffffffffffffffffffffffffffffff16815260200190815260200160002060008473ffffffffffffffffffffffffffffffffffffffff1673ffffffffffffffffffffffffffffffffffffffff16815260200190815260200160002060006101000a81548160ff0219169083151502179055508173ffffffffffffffffffffffffffffffffffffffff168373ffffffffffffffffffffffffffffffffffffffff167f17307eab39ab6107e8899845ad3d59bd9653f200f220920489ca2b5937696c3183604051611ba69190612d7b565b60405180910390a3505050565b611bbe84848461166e565b611bca84848484611dc1565b611c09576040517f08c379a0000000000000000000000000000000000000000000000000000000008152600401611c0090612de8565b60405180910390fd5b50505050565b6060611c1a82611463565b611c59576040517f08c379a0000000000000000000000000000000000000000000000000000000008152600401611c5090612f68565b60405180910390fd5b6000600660008481526020019081526020016000208054611c79906132f3565b80601f0160208091040260200160405190810160405280929190818152602001828054611ca5906132f3565b8015611cf25780601f10611cc757610100808354040283529160200191611cf2565b820191906000526020600020905b815481529060010190602001808311611cd557829003601f168201915b505050505090506000611d03611f58565b9050600081511415611d19578192505050611d5c565b600082511115611d4e578082604051602001611d36929190612cf0565b60405160208183030381529060405292505050611d5c565b611d5784611fea565b925050505b919050565b505050565b611d708383612091565b611d7d6000848484611dc1565b611dbc576040517f08c379a0000000000000000000000000000000000000000000000000000000008152600401611db390612de8565b60405180910390fd5b505050565b6000611de28473ffffffffffffffffffffffffffffffffffffffff1661225f565b15611f4b578373ffffffffffffffffffffffffffffffffffffffff1663150b7a02611e0b6114cf565b8786866040518563ffffffff1660e01b8152600401611e2d9493929190612d2f565b602060405180830381600087803b158015611e4757600080fd5b505af1925050508015611e7857506040513d601f19601f82011682018060405250810190611e75919061281e565b60015b611efb573d8060008114611ea8576040519150601f19603f3d011682016040523d82523d6000602084013e611ead565b606091505b50600081511415611ef3576040517f08c379a0000000000000000000000000000000000000000000000000000000008152600401611eea90612de8565b60405180910390fd5b805181602001fd5b63150b7a0260e01b7bffffffffffffffffffffffffffffffffffffffffffffffffffffffff1916817bffffffffffffffffffffffffffffffffffffffffffffffffffffffff191614915050611f50565b600190505b949350505050565b6060600a8054611f67906132f3565b80601f0160208091040260200160405190810160405280929190818152602001828054611f93906132f3565b8015611fe05780601f10611fb557610100808354040283529160200191611fe0565b820191906000526020600020905b815481529060010190602001808311611fc357829003601f168201915b5050505050905090565b6060611ff582611463565b612034576040517f08c379a000000000000000000000000000000000000000000000000000000000815260040161202b90612fe8565b60405180910390fd5b600061203e611f58565b9050600081511161205e5760405180602001604052806000815250612089565b8061206884612272565b604051602001612079929190612cf0565b6040516020818303038152906040525b915050919050565b600073ffffffffffffffffffffffffffffffffffffffff168273ffffffffffffffffffffffffffffffffffffffff161415612101576040517f08c379a00000000000000000000000000000000000000000000000000000000081526004016120f890612f48565b60405180910390fd5b61210a81611463565b1561214a576040517f08c379a000000000000000000000000000000000000000000000000000000000815260040161214190612e28565b60405180910390fd5b61215660008383611d61565b6001600360008473ffffffffffffffffffffffffffffffffffffffff1673ffffffffffffffffffffffffffffffffffffffff16815260200190815260200160002060008282546121a69190613182565b92505081905550816002600083815260200190815260200160002060006101000a81548173ffffffffffffffffffffffffffffffffffffffff021916908373ffffffffffffffffffffffffffffffffffffffff160217905550808273ffffffffffffffffffffffffffffffffffffffff16600073ffffffffffffffffffffffffffffffffffffffff167fddf252ad1be2c89b69c2b068fc378daa952ba7f163c4a11628f55a4df523b3ef60405160405180910390a45050565b600080823b905060008111915050919050565b606060008214156122ba576040518060400160405280600181526020017f300000000000000000000000000000000000000000000000000000000000000081525090506123ce565b600082905060005b600082146122ec5780806122d590613356565b915050600a826122e591906131d8565b91506122c2565b60008167ffffffffffffffff8111156123085761230761348c565b5b6040519080825280601f01601f19166020018201604052801561233a5781602001600182028036833780820191505090505b5090505b600085146123c7576001826123539190613209565b9150600a85612362919061339f565b603061236e9190613182565b60f81b8183815181106123845761238361345d565b5b60200101907effffffffffffffffffffffffffffffffffffffffffffffffffffffffffffff1916908160001a905350600a856123c091906131d8565b945061233e565b8093505050505b919050565b8280546123df906132f3565b90600052602060002090601f0160209004810192826124015760008555612448565b82601f1061241a57805160ff1916838001178555612448565b82800160010185558215612448579182015b8281111561244757825182559160200191906001019061242c565b5b5090506124559190612459565b5090565b5b8082111561247257600081600090555060010161245a565b5090565b6000612489612484846130c8565b6130a3565b9050828152602081018484840111156124a5576124a46134c0565b5b6124b08482856132b1565b509392505050565b60006124cb6124c6846130f9565b6130a3565b9050828152602081018484840111156124e7576124e66134c0565b5b6124f28482856132b1565b509392505050565b60008135905061250981613a51565b92915050565b60008135905061251e81613a68565b92915050565b60008135905061253381613a7f565b92915050565b60008151905061254881613a7f565b92915050565b600082601f830112612563576125626134bb565b5b8135612573848260208601612476565b91505092915050565b600082601f830112612591576125906134bb565b5b81356125a18482602086016124b8565b91505092915050565b6000813590506125b981613a96565b92915050565b6000602082840312156125d5576125d46134ca565b5b60006125e3848285016124fa565b91505092915050565b60008060408385031215612603576126026134ca565b5b6000612611858286016124fa565b9250506020612622858286016124fa565b9150509250929050565b600080600060608486031215612645576126446134ca565b5b6000612653868287016124fa565b9350506020612664868287016124fa565b9250506040612675868287016125aa565b9150509250925092565b60008060008060808587031215612699576126986134ca565b5b60006126a7878288016124fa565b94505060206126b8878288016124fa565b93505060406126c9878288016125aa565b925050606085013567ffffffffffffffff8111156126ea576126e96134c5565b5b6126f68782880161254e565b91505092959194509250565b60008060408385031215612719576127186134ca565b5b6000612727858286016124fa565b92505060206127388582860161250f565b9150509250929050565b60008060408385031215612759576127586134ca565b5b6000612767858286016124fa565b9250506020612778858286016125aa565b9150509250929050565b60008060006060848603121561279b5761279a6134ca565b5b60006127a9868287016124fa565b93505060206127ba868287016125aa565b925050604084013567ffffffffffffffff8111156127db576127da6134c5565b5b6127e78682870161257c565b9150509250925092565b600060208284031215612807576128066134ca565b5b600061281584828501612524565b91505092915050565b600060208284031215612834576128336134ca565b5b600061284284828501612539565b91505092915050565b600060208284031215612861576128606134ca565b5b600082013567ffffffffffffffff81111561287f5761287e6134c5565b5b61288b8482850161257c565b91505092915050565b6000602082840312156128aa576128a96134ca565b5b60006128b8848285016125aa565b91505092915050565b6128ca8161323d565b82525050565b6128d98161324f565b82525050565b60006128ea8261313f565b6128f48185613155565b93506129048185602086016132c0565b61290d816134cf565b840191505092915050565b60006129238261314a565b61292d8185613166565b935061293d8185602086016132c0565b612946816134cf565b840191505092915050565b600061295c8261314a565b6129668185613177565b93506129768185602086016132c0565b80840191505092915050565b6000815461298f816132f3565b6129998186613166565b945060018216600081146129b457600181146129c6576129f9565b60ff19831686526020860193506129f9565b6129cf8561312a565b60005b838110156129f1578154818901526001820191506020810190506129d2565b808801955050505b50505092915050565b6000612a0f603283613166565b9150612a1a826134e0565b604082019050919050565b6000612a32602683613166565b9150612a3d8261352f565b604082019050919050565b6000612a55601c83613166565b9150612a608261357e565b602082019050919050565b6000612a78601983613166565b9150612a83826135a7565b602082019050919050565b6000612a9b602483613166565b9150612aa6826135d0565b604082019050919050565b6000612abe601983613166565b9150612ac98261361f565b602082019050919050565b6000612ae1602c83613166565b9150612aec82613648565b604082019050919050565b6000612b04603883613166565b9150612b0f82613697565b604082019050919050565b6000612b27602a83613166565b9150612b32826136e6565b604082019050919050565b6000612b4a602983613166565b9150612b5582613735565b604082019050919050565b6000612b6d602e83613166565b9150612b7882613784565b604082019050919050565b6000612b90602083613166565b9150612b9b826137d3565b602082019050919050565b6000612bb3603183613166565b9150612bbe826137fc565b604082019050919050565b6000612bd6602c83613166565b9150612be18261384b565b604082019050919050565b6000612bf9602083613166565b9150612c048261389a565b602082019050919050565b6000612c1c602983613166565b9150612c27826138c3565b604082019050919050565b6000612c3f602f83613166565b9150612c4a82613912565b604082019050919050565b6000612c62602183613166565b9150612c6d82613961565b604082019050919050565b6000612c85602083613166565b9150612c90826139b0565b602082019050919050565b6000612ca8603183613166565b9150612cb3826139d9565b604082019050919050565b6000612ccb601183613166565b9150612cd682613a28565b602082019050919050565b612cea816132a7565b82525050565b6000612cfc8285612951565b9150612d088284612951565b91508190509392505050565b6000602082019050612d2960008301846128c1565b92915050565b6000608082019050612d4460008301876128c1565b612d5160208301866128c1565b612d5e6040830185612ce1565b8181036060830152612d7081846128df565b905095945050505050565b6000602082019050612d9060008301846128d0565b92915050565b60006020820190508181036000830152612db08184612918565b905092915050565b60006040820190508181036000830152612dd28185612982565b9050612de160208301846128c1565b9392505050565b60006020820190508181036000830152612e0181612a02565b9050919050565b60006020820190508181036000830152612e2181612a25565b9050919050565b60006020820190508181036000830152612e4181612a48565b9050919050565b60006020820190508181036000830152612e6181612a6b565b9050919050565b60006020820190508181036000830152612e8181612a8e565b9050919050565b60006020820190508181036000830152612ea181612ab1565b9050919050565b60006020820190508181036000830152612ec181612ad4565b9050919050565b60006020820190508181036000830152612ee181612af7565b9050919050565b60006020820190508181036000830152612f0181612b1a565b9050919050565b60006020820190508181036000830152612f2181612b3d565b9050919050565b60006020820190508181036000830152612f4181612b60565b9050919050565b60006020820190508181036000830152612f6181612b83565b9050919050565b60006020820190508181036000830152612f8181612ba6565b9050919050565b60006020820190508181036000830152612fa181612bc9565b9050919050565b60006020820190508181036000830152612fc181612bec565b9050919050565b60006020820190508181036000830152612fe181612c0f565b9050919050565b6000602082019050818103600083015261300181612c32565b9050919050565b6000602082019050818103600083015261302181612c55565b9050919050565b6000602082019050818103600083015261304181612c78565b9050919050565b6000602082019050818103600083015261306181612c9b565b9050919050565b6000602082019050818103600083015261308181612cbe565b9050919050565b600060208201905061309d6000830184612ce1565b92915050565b60006130ad6130be565b90506130b98282613325565b919050565b6000604051905090565b600067ffffffffffffffff8211156130e3576130e261348c565b5b6130ec826134cf565b9050602081019050919050565b600067ffffffffffffffff8211156131145761311361348c565b5b61311d826134cf565b9050602081019050919050565b60008190508160005260206000209050919050565b600081519050919050565b600081519050919050565b600082825260208201905092915050565b600082825260208201905092915050565b600081905092915050565b600061318d826132a7565b9150613198836132a7565b9250827fffffffffffffffffffffffffffffffffffffffffffffffffffffffffffffffff038211156131cd576131cc6133d0565b5b828201905092915050565b60006131e3826132a7565b91506131ee836132a7565b9250826131fe576131fd6133ff565b5b828204905092915050565b6000613214826132a7565b915061321f836132a7565b925082821015613232576132316133d0565b5b828203905092915050565b600061324882613287565b9050919050565b60008115159050919050565b60007fffffffff0000000000000000000000000000000000000000000000000000000082169050919050565b600073ffffffffffffffffffffffffffffffffffffffff82169050919050565b6000819050919050565b82818337600083830152505050565b60005b838110156132de5780820151818401526020810190506132c3565b838111156132ed576000848401525b50505050565b6000600282049050600182168061330b57607f821691505b6020821081141561331f5761331e61342e565b5b50919050565b61332e826134cf565b810181811067ffffffffffffffff8211171561334d5761334c61348c565b5b80604052505050565b6000613361826132a7565b91507fffffffffffffffffffffffffffffffffffffffffffffffffffffffffffffffff821415613394576133936133d0565b5b600182019050919050565b60006133aa826132a7565b91506133b5836132a7565b9250826133c5576133c46133ff565b5b828206905092915050565b7f4e487b7100000000000000000000000000000000000000000000000000000000600052601160045260246000fd5b7f4e487b7100000000000000000000000000000000000000000000000000000000600052601260045260246000fd5b7f4e487b7100000000000000000000000000000000000000000000000000000000600052602260045260246000fd5b7f4e487b7100000000000000000000000000000000000000000000000000000000600052603260045260246000fd5b7f4e487b7100000000000000000000000000000000000000000000000000000000600052604160045260246000fd5b600080fd5b600080fd5b600080fd5b600080fd5b6000601f19601f8301169050919050565b7f4552433732313a207472616e7366657220746f206e6f6e20455243373231526560008201527f63656976657220696d706c656d656e7465720000000000000000000000000000602082015250565b7f4f776e61626c653a206e6577206f776e657220697320746865207a65726f206160008201527f6464726573730000000000000000000000000000000000000000000000000000602082015250565b7f4552433732313a20746f6b656e20616c7265616479206d696e74656400000000600082015250565b7f547765657420697320616c726561647920766572696669656400000000000000600082015250565b7f4552433732313a207472616e7366657220746f20746865207a65726f2061646460008201527f7265737300000000000000000000000000000000000000000000000000000000602082015250565b7f4552433732313a20617070726f766520746f2063616c6c657200000000000000600082015250565b7f4552433732313a206f70657261746f7220717565727920666f72206e6f6e657860008201527f697374656e7420746f6b656e0000000000000000000000000000000000000000602082015250565b7f4552433732313a20617070726f76652063616c6c6572206973206e6f74206f7760008201527f6e6572206e6f7220617070726f76656420666f7220616c6c0000000000000000602082015250565b7f4552433732313a2062616c616e636520717565727920666f7220746865207a6560008201527f726f206164647265737300000000000000000000000000000000000000000000602082015250565b7f4552433732313a206f776e657220717565727920666f72206e6f6e657869737460008201527f656e7420746f6b656e0000000000000000000000000000000000000000000000602082015250565b7f45524337323155524953746f726167653a2055524920736574206f66206e6f6e60008201527f6578697374656e7420746f6b656e000000000000000000000000000000000000602082015250565b7f4552433732313a206d696e7420746f20746865207a65726f2061646472657373600082015250565b7f45524337323155524953746f726167653a2055524920717565727920666f722060008201527f6e6f6e6578697374656e7420746f6b656e000000000000000000000000000000602082015250565b7f4552433732313a20617070726f76656420717565727920666f72206e6f6e657860008201527f697374656e7420746f6b656e0000000000000000000000000000000000000000602082015250565b7f4f776e61626c653a2063616c6c6572206973206e6f7420746865206f776e6572600082015250565b7f4552433732313a207472616e73666572206f6620746f6b656e2074686174206960008201527f73206e6f74206f776e0000000000000000000000000000000000000000000000602082015250565b7f4552433732314d657461646174613a2055524920717565727920666f72206e6f60008201527f6e6578697374656e7420746f6b656e0000000000000000000000000000000000602082015250565b7f4552433732313a20617070726f76616c20746f2063757272656e74206f776e6560008201527f7200000000000000000000000000000000000000000000000000000000000000602082015250565b7f596f75206172656e277420616c6c6f77656420746f206d696e74207477656574600082015250565b7f4552433732313a207472616e736665722063616c6c6572206973206e6f74206f60008201527f776e6572206e6f7220617070726f766564000000000000000000000000000000602082015250565b7f4d696e74696e6720697320706175736564000000000000000000000000000000600082015250565b613a5a8161323d565b8114613a6557600080fd5b50565b613a718161324f565b8114613a7c57600080fd5b50565b613a888161325b565b8114613a9357600080fd5b50565b613a9f816132a7565b8114613aaa57600080fd5b5056fea26469706673582212209f390b115b4399863e6b5f05c519ad6f3cc7faf332da5b0acb45f7f41455fe3664736f6c63430008060033",
  "linkReferences": {},
  "deployedLinkReferences": {}
}