{
  "_format": "hh-sol-artifact-1",
  "contractName": "TweetToken",
  "sourceName": "contracts/TweetToken.sol",
  "abi": [
    {
      "inputs": [
        {
          "internalType": "string",
          "name": "_newBaseURI",
          "type": "string"
        }
      ],
      "stateMutability": "nonpayable",
      "type": "constructor"
    },
    {
      "anonymous": false,
      "inputs": [
        {
          "indexed": true,
          "internalType": "address",
          "name": "owner",
          "type": "address"
        },
        {
          "indexed": true,
          "internalType": "address",
          "name": "approved",
          "type": "address"
        },
        {
          "indexed": true,
          "internalType": "uint256",
          "name": "tokenId",
          "type": "uint256"
        }
      ],
      "name": "Approval",
      "type": "event"
    },
    {
      "anonymous": false,
      "inputs": [
        {
          "indexed": true,
          "internalType": "address",
          "name": "owner",
          "type": "address"
        },
        {
          "indexed": true,
          "internalType": "address",
          "name": "operator",
          "type": "address"
        },
        {
          "indexed": false,
          "internalType": "bool",
          "name": "approved",
          "type": "bool"
        }
      ],
      "name": "ApprovalForAll",
      "type": "event"
    },
    {
      "anonymous": false,
      "inputs": [
        {
          "indexed": true,
          "internalType": "address",
          "name": "previousOwner",
          "type": "address"
        },
        {
          "indexed": true,
          "internalType": "address",
          "name": "newOwner",
          "type": "address"
        }
      ],
      "name": "OwnershipTransferred",
      "type": "event"
    },
    {
      "anonymous": false,
      "inputs": [
        {
          "indexed": true,
          "internalType": "address",
          "name": "from",
          "type": "address"
        },
        {
          "indexed": true,
          "internalType": "address",
          "name": "to",
          "type": "address"
        },
        {
          "indexed": true,
          "internalType": "uint256",
          "name": "tokenId",
          "type": "uint256"
        }
      ],
      "name": "Transfer",
      "type": "event"
    },
    {
      "anonymous": false,
      "inputs": [
        {
          "indexed": false,
          "internalType": "address",
          "name": "account",
          "type": "address"
        },
        {
          "indexed": true,
          "internalType": "uint256",
          "name": "tweetId",
          "type": "uint256"
        }
      ],
      "name": "postVerified",
      "type": "event"
    },
    {
      "anonymous": false,
      "inputs": [
        {
          "indexed": true,
          "internalType": "uint256",
          "name": "tweetId",
          "type": "uint256"
        },
        {
          "indexed": false,
          "internalType": "string",
          "name": "tokenURI",
          "type": "string"
        }
      ],
      "name": "tokenCreated",
      "type": "event"
    },
    {
      "inputs": [
        {
          "internalType": "address",
          "name": "_account",
          "type": "address"
        },
        {
          "internalType": "uint256",
          "name": "_tweetId",
          "type": "uint256"
        },
        {
          "internalType": "string",
          "name": "_tokenURI",
          "type": "string"
        }
      ],
      "name": "addVerifiedTweet",
      "outputs": [],
      "stateMutability": "nonpayable",
      "type": "function"
    },
    {
      "inputs": [
        {
          "internalType": "address",
          "name": "to",
          "type": "address"
        },
        {
          "internalType": "uint256",
          "name": "tokenId",
          "type": "uint256"
        }
      ],
      "name": "approve",
      "outputs": [],
      "stateMutability": "nonpayable",
      "type": "function"
    },
    {
      "inputs": [
        {
          "internalType": "address",
          "name": "owner",
          "type": "address"
        }
      ],
      "name": "balanceOf",
      "outputs": [
        {
          "internalType": "uint256",
          "name": "",
          "type": "uint256"
        }
      ],
      "stateMutability": "view",
      "type": "function"
    },
    {
      "inputs": [],
      "name": "baseURI",
      "outputs": [
        {
          "internalType": "string",
          "name": "",
          "type": "string"
        }
      ],
      "stateMutability": "view",
      "type": "function"
    },
    {
      "inputs": [],
      "name": "flipSaleState",
      "outputs": [
        {
          "internalType": "bool",
          "name": "",
          "type": "bool"
        }
      ],
      "stateMutability": "nonpayable",
      "type": "function"
    },
    {
      "inputs": [
        {
          "internalType": "uint256",
          "name": "tokenId",
          "type": "uint256"
        }
      ],
      "name": "getApproved",
      "outputs": [
        {
          "internalType": "address",
          "name": "",
          "type": "address"
        }
      ],
      "stateMutability": "view",
      "type": "function"
    },
    {
      "inputs": [],
      "name": "getTokenCount",
      "outputs": [
        {
          "internalType": "uint256",
          "name": "",
          "type": "uint256"
        }
      ],
      "stateMutability": "view",
      "type": "function"
    },
    {
      "inputs": [
        {
          "internalType": "address",
          "name": "owner",
          "type": "address"
        },
        {
          "internalType": "address",
          "name": "operator",
          "type": "address"
        }
      ],
      "name": "isApprovedForAll",
      "outputs": [
        {
          "internalType": "bool",
          "name": "",
          "type": "bool"
        }
      ],
      "stateMutability": "view",
      "type": "function"
    },
    {
      "inputs": [
        {
          "internalType": "uint256",
          "name": "tweetId",
          "type": "uint256"
        }
      ],
      "name": "mintTweet",
      "outputs": [
        {
          "internalType": "uint256",
          "name": "",
          "type": "uint256"
        }
      ],
      "stateMutability": "nonpayable",
      "type": "function"
    },
    {
      "inputs": [],
      "name": "name",
      "outputs": [
        {
          "internalType": "string",
          "name": "",
          "type": "string"
        }
      ],
      "stateMutability": "view",
      "type": "function"
    },
    {
      "inputs": [],
      "name": "owner",
      "outputs": [
        {
          "internalType": "address",
          "name": "",
          "type": "address"
        }
      ],
      "stateMutability": "view",
      "type": "function"
    },
    {
      "inputs": [
        {
          "internalType": "uint256",
          "name": "tokenId",
          "type": "uint256"
        }
      ],
      "name": "ownerOf",
      "outputs": [
        {
          "internalType": "address",
          "name": "",
          "type": "address"
        }
      ],
      "stateMutability": "view",
      "type": "function"
    },
    {
      "inputs": [],
      "name": "renounceOwnership",
      "outputs": [],
      "stateMutability": "nonpayable",
      "type": "function"
    },
    {
      "inputs": [
        {
          "internalType": "address",
          "name": "from",
          "type": "address"
        },
        {
          "internalType": "address",
          "name": "to",
          "type": "address"
        },
        {
          "internalType": "uint256",
          "name": "tokenId",
          "type": "uint256"
        }
      ],
      "name": "safeTransferFrom",
      "outputs": [],
      "stateMutability": "nonpayable",
      "type": "function"
    },
    {
      "inputs": [
        {
          "internalType": "address",
          "name": "from",
          "type": "address"
        },
        {
          "internalType": "address",
          "name": "to",
          "type": "address"
        },
        {
          "internalType": "uint256",
          "name": "tokenId",
          "type": "uint256"
        },
        {
          "internalType": "bytes",
          "name": "_data",
          "type": "bytes"
        }
      ],
      "name": "safeTransferFrom",
      "outputs": [],
      "stateMutability": "nonpayable",
      "type": "function"
    },
    {
      "inputs": [],
      "name": "saleIsActive",
      "outputs": [
        {
          "internalType": "bool",
          "name": "",
          "type": "bool"
        }
      ],
      "stateMutability": "view",
      "type": "function"
    },
    {
      "inputs": [
        {
          "internalType": "address",
          "name": "operator",
          "type": "address"
        },
        {
          "internalType": "bool",
          "name": "approved",
          "type": "bool"
        }
      ],
      "name": "setApprovalForAll",
      "outputs": [],
      "stateMutability": "nonpayable",
      "type": "function"
    },
    {
      "inputs": [
        {
          "internalType": "string",
          "name": "_newBaseURI",
          "type": "string"
        }
      ],
      "name": "setBaseURI",
      "outputs": [
        {
          "internalType": "string",
          "name": "",
          "type": "string"
        }
      ],
      "stateMutability": "nonpayable",
      "type": "function"
    },
    {
      "inputs": [
        {
          "internalType": "bytes4",
          "name": "interfaceId",
          "type": "bytes4"
        }
      ],
      "name": "supportsInterface",
      "outputs": [
        {
          "internalType": "bool",
          "name": "",
          "type": "bool"
        }
      ],
      "stateMutability": "view",
      "type": "function"
    },
    {
      "inputs": [],
      "name": "symbol",
      "outputs": [
        {
          "internalType": "string",
          "name": "",
          "type": "string"
        }
      ],
      "stateMutability": "view",
      "type": "function"
    },
    {
      "inputs": [
        {
          "internalType": "uint256",
          "name": "tokenId",
          "type": "uint256"
        }
      ],
      "name": "tokenURI",
      "outputs": [
        {
          "internalType": "string",
          "name": "",
          "type": "string"
        }
      ],
      "stateMutability": "view",
      "type": "function"
    },
    {
      "inputs": [
        {
          "internalType": "address",
          "name": "from",
          "type": "address"
        },
        {
          "internalType": "address",
          "name": "to",
          "type": "address"
        },
        {
          "internalType": "uint256",
          "name": "tokenId",
          "type": "uint256"
        }
      ],
      "name": "transferFrom",
      "outputs": [],
      "stateMutability": "nonpayable",
      "type": "function"
    },
    {
      "inputs": [
        {
          "internalType": "address",
          "name": "newOwner",
          "type": "address"
        }
      ],
      "name": "transferOwnership",
      "outputs": [],
      "stateMutability": "nonpayable",
      "type": "function"
    },
    {
      "inputs": [
        {
          "internalType": "uint256",
          "name": "",
          "type": "uint256"
        }
      ],
      "name": "tweetIdToTokenURI",
      "outputs": [
        {
          "internalType": "string",
          "name": "",
          "type": "string"
        }
      ],
      "stateMutability": "view",
      "type": "function"
    }
  ],
  "bytecode": "0x60806040523480156200001157600080fd5b5060405162003e9738038062003e9783398181016040528101906200003791906200032e565b6040518060400160405280600a81526020017f5477656574546f6b656e000000000000000000000000000000000000000000008152506040518060400160405280600381526020017f54545400000000000000000000000000000000000000000000000000000000008152508160009080519060200190620000bb92919062000200565b508060019080519060200190620000d492919062000200565b505050620000f7620000eb6200013260201b60201c565b6200013a60201b60201c565b80600a90805190602001906200010f92919062000200565b506000600960006101000a81548160ff0219169083151502179055505062000503565b600033905090565b6000600760009054906101000a900473ffffffffffffffffffffffffffffffffffffffff16905081600760006101000a81548173ffffffffffffffffffffffffffffffffffffffff021916908373ffffffffffffffffffffffffffffffffffffffff1602179055508173ffffffffffffffffffffffffffffffffffffffff168173ffffffffffffffffffffffffffffffffffffffff167f8be0079c531659141344cd1fd0a4f28419497f9722a3daafe3b4186f6b6457e060405160405180910390a35050565b8280546200020e9062000414565b90600052602060002090601f0160209004810192826200023257600085556200027e565b82601f106200024d57805160ff19168380011785556200027e565b828001600101855582156200027e579182015b828111156200027d57825182559160200191906001019062000260565b5b5090506200028d919062000291565b5090565b5b80821115620002ac57600081600090555060010162000292565b5090565b6000620002c7620002c184620003a8565b6200037f565b905082815260208101848484011115620002e657620002e5620004e3565b5b620002f3848285620003de565b509392505050565b600082601f830112620003135762000312620004de565b5b815162000325848260208601620002b0565b91505092915050565b600060208284031215620003475762000346620004ed565b5b600082015167ffffffffffffffff811115620003685762000367620004e8565b5b6200037684828501620002fb565b91505092915050565b60006200038b6200039e565b90506200039982826200044a565b919050565b6000604051905090565b600067ffffffffffffffff821115620003c657620003c5620004af565b5b620003d182620004f2565b9050602081019050919050565b60005b83811015620003fe578082015181840152602081019050620003e1565b838111156200040e576000848401525b50505050565b600060028204905060018216806200042d57607f821691505b6020821081141562000444576200044362000480565b5b50919050565b6200045582620004f2565b810181811067ffffffffffffffff82111715620004775762000476620004af565b5b80604052505050565b7f4e487b7100000000000000000000000000000000000000000000000000000000600052602260045260246000fd5b7f4e487b7100000000000000000000000000000000000000000000000000000000600052604160045260246000fd5b600080fd5b600080fd5b600080fd5b600080fd5b6000601f19601f8301169050919050565b61398480620005136000396000f3fe608060405234801561001057600080fd5b50600436106101585760003560e01c806370a08231116100c3578063b88d4fde1161007c578063b88d4fde146103db578063c87b56dd146103f7578063cb9b3d1214610427578063e985e9c514610443578063eb8d244414610473578063f2fde38b1461049157610158565b806370a082311461032b578063715018a61461035b57806378a89567146103655780638da5cb5b1461038357806395d89b41146103a1578063a22cb465146103bf57610158565b806330d2d4da1161011557806330d2d4da1461024357806334918dfd1461027357806342842e0e1461029157806355f804b3146102ad5780636352211e146102dd5780636c0360eb1461030d57610158565b806301ffc9a71461015d57806306fdde031461018d578063081812fc146101ab578063095ea7b3146101db57806323b872dd146101f7578063299ffdaa14610213575b600080fd5b610177600480360381019061017291906126e6565b6104ad565b6040516101849190612c4d565b60405180910390f35b61019561058f565b6040516101a29190612c68565b60405180910390f35b6101c560048036038101906101c09190612789565b610621565b6040516101d29190612be6565b60405180910390f35b6101f560048036038101906101f09190612637565b6106a6565b005b610211600480360381019061020c9190612521565b6107be565b005b61022d60048036038101906102289190612789565b61081e565b60405161023a9190612c68565b60405180910390f35b61025d60048036038101906102589190612789565b6108be565b60405161026a9190612f2c565b60405180910390f35b61027b610a9b565b6040516102889190612c4d565b60405180910390f35b6102ab60048036038101906102a69190612521565b610b47565b005b6102c760048036038101906102c29190612740565b610b67565b6040516102d49190612c68565b60405180910390f35b6102f760048036038101906102f29190612789565b610c8b565b6040516103049190612be6565b60405180910390f35b610315610d3d565b6040516103229190612c68565b60405180910390f35b610345600480360381019061034091906124b4565b610dcb565b6040516103529190612f2c565b60405180910390f35b610363610e83565b005b61036d610f0b565b60405161037a9190612f2c565b60405180910390f35b61038b610f1c565b6040516103989190612be6565b60405180910390f35b6103a9610f46565b6040516103b69190612c68565b60405180910390f35b6103d960048036038101906103d491906125f7565b610fd8565b005b6103f560048036038101906103f09190612574565b610fee565b005b610411600480360381019061040c9190612789565b611050565b60405161041e9190612c68565b60405180910390f35b610441600480360381019061043c9190612677565b611062565b005b61045d600480360381019061045891906124e1565b61114f565b60405161046a9190612c4d565b60405180910390f35b61047b6111e3565b6040516104889190612c4d565b60405180910390f35b6104ab60048036038101906104a691906124b4565b6111f6565b005b60007f80ac58cd000000000000000000000000000000000000000000000000000000007bffffffffffffffffffffffffffffffffffffffffffffffffffffffff1916827bffffffffffffffffffffffffffffffffffffffffffffffffffffffff1916148061057857507f5b5e139f000000000000000000000000000000000000000000000000000000007bffffffffffffffffffffffffffffffffffffffffffffffffffffffff1916827bffffffffffffffffffffffffffffffffffffffffffffffffffffffff1916145b806105885750610587826112ee565b5b9050919050565b60606000805461059e90613197565b80601f01602080910402602001604051908101604052809291908181526020018280546105ca90613197565b80156106175780601f106105ec57610100808354040283529160200191610617565b820191906000526020600020905b8154815290600101906020018083116105fa57829003601f168201915b5050505050905090565b600061062c82611358565b61066b576040517f08c379a000000000000000000000000000000000000000000000000000000000815260040161066290612e2c565b60405180910390fd5b6004600083815260200190815260200160002060009054906101000a900473ffffffffffffffffffffffffffffffffffffffff169050919050565b60006106b182610c8b565b90508073ffffffffffffffffffffffffffffffffffffffff168373ffffffffffffffffffffffffffffffffffffffff161415610722576040517f08c379a000000000000000000000000000000000000000000000000000000000815260040161071990612ecc565b60405180910390fd5b8073ffffffffffffffffffffffffffffffffffffffff166107416113c4565b73ffffffffffffffffffffffffffffffffffffffff161480610770575061076f8161076a6113c4565b61114f565b5b6107af576040517f08c379a00000000000000000000000000000000000000000000000000000000081526004016107a690612d6c565b60405180910390fd5b6107b983836113cc565b505050565b6107cf6107c96113c4565b82611485565b61080e576040517f08c379a000000000000000000000000000000000000000000000000000000000815260040161080590612eec565b60405180910390fd5b610819838383611563565b505050565b600c602052806000526040600020600091509050805461083d90613197565b80601f016020809104026020016040519081016040528092919081815260200182805461086990613197565b80156108b65780601f1061088b576101008083540402835291602001916108b6565b820191906000526020600020905b81548152906001019060200180831161089957829003601f168201915b505050505081565b6000600960009054906101000a900460ff1661090f576040517f08c379a000000000000000000000000000000000000000000000000000000000815260040161090690612f0c565b60405180910390fd5b81600b60003373ffffffffffffffffffffffffffffffffffffffff1673ffffffffffffffffffffffffffffffffffffffff1681526020019081526020016000205414610990576040517f08c379a000000000000000000000000000000000000000000000000000000000815260040161098790612eac565b60405180910390fd5b61099a33836117bf565b6109a460086117dd565b610a4982600c600085815260200190815260200160002080546109c690613197565b80601f01602080910402602001604051908101604052809291908181526020018280546109f290613197565b8015610a3f5780601f10610a1457610100808354040283529160200191610a3f565b820191906000526020600020905b815481529060010190602001808311610a2257829003601f168201915b50505050506117f3565b817f5331e138388752e18e94f91b33da00f055896a339faa7c178291b63e10cc4599600c6000858152602001908152602001600020604051610a8b9190612c8a565b60405180910390a2819050919050565b6000610aa56113c4565b73ffffffffffffffffffffffffffffffffffffffff16610ac3610f1c565b73ffffffffffffffffffffffffffffffffffffffff1614610b19576040517f08c379a0000000000000000000000000000000000000000000000000000000008152600401610b1090612e4c565b60405180910390fd5b600960009054906101000a900460ff1615600960006101000a81548160ff0219169083151502179055905090565b610b6283838360405180602001604052806000815250610fee565b505050565b6060610b716113c4565b73ffffffffffffffffffffffffffffffffffffffff16610b8f610f1c565b73ffffffffffffffffffffffffffffffffffffffff1614610be5576040517f08c379a0000000000000000000000000000000000000000000000000000000008152600401610bdc90612e4c565b60405180910390fd5b81600a9080519060200190610bfb9291906122c8565b8054610c0690613197565b80601f0160208091040260200160405190810160405280929190818152602001828054610c3290613197565b8015610c7f5780601f10610c5457610100808354040283529160200191610c7f565b820191906000526020600020905b815481529060010190602001808311610c6257829003601f168201915b50505050509050919050565b6000806002600084815260200190815260200160002060009054906101000a900473ffffffffffffffffffffffffffffffffffffffff169050600073ffffffffffffffffffffffffffffffffffffffff168173ffffffffffffffffffffffffffffffffffffffff161415610d34576040517f08c379a0000000000000000000000000000000000000000000000000000000008152600401610d2b90612dac565b60405180910390fd5b80915050919050565b600a8054610d4a90613197565b80601f0160208091040260200160405190810160405280929190818152602001828054610d7690613197565b8015610dc35780601f10610d9857610100808354040283529160200191610dc3565b820191906000526020600020905b815481529060010190602001808311610da657829003601f168201915b505050505081565b60008073ffffffffffffffffffffffffffffffffffffffff168273ffffffffffffffffffffffffffffffffffffffff161415610e3c576040517f08c379a0000000000000000000000000000000000000000000000000000000008152600401610e3390612d8c565b60405180910390fd5b600360008373ffffffffffffffffffffffffffffffffffffffff1673ffffffffffffffffffffffffffffffffffffffff168152602001908152602001600020549050919050565b610e8b6113c4565b73ffffffffffffffffffffffffffffffffffffffff16610ea9610f1c565b73ffffffffffffffffffffffffffffffffffffffff1614610eff576040517f08c379a0000000000000000000000000000000000000000000000000000000008152600401610ef690612e4c565b60405180910390fd5b610f096000611867565b565b6000610f17600861192d565b905090565b6000600760009054906101000a900473ffffffffffffffffffffffffffffffffffffffff16905090565b606060018054610f5590613197565b80601f0160208091040260200160405190810160405280929190818152602001828054610f8190613197565b8015610fce5780601f10610fa357610100808354040283529160200191610fce565b820191906000526020600020905b815481529060010190602001808311610fb157829003601f168201915b5050505050905090565b610fea610fe36113c4565b838361193b565b5050565b610fff610ff96113c4565b83611485565b61103e576040517f08c379a000000000000000000000000000000000000000000000000000000000815260040161103590612eec565b60405180910390fd5b61104a84848484611aa8565b50505050565b606061105b82611b04565b9050919050565b61106a6113c4565b73ffffffffffffffffffffffffffffffffffffffff16611088610f1c565b73ffffffffffffffffffffffffffffffffffffffff16146110de576040517f08c379a00000000000000000000000000000000000000000000000000000000081526004016110d590612e4c565b60405180910390fd5b81600b60008573ffffffffffffffffffffffffffffffffffffffff1673ffffffffffffffffffffffffffffffffffffffff1681526020019081526020016000208190555080600c600084815260200190815260200160002090805190602001906111499291906122c8565b50505050565b6000600560008473ffffffffffffffffffffffffffffffffffffffff1673ffffffffffffffffffffffffffffffffffffffff16815260200190815260200160002060008373ffffffffffffffffffffffffffffffffffffffff1673ffffffffffffffffffffffffffffffffffffffff16815260200190815260200160002060009054906101000a900460ff16905092915050565b600960009054906101000a900460ff1681565b6111fe6113c4565b73ffffffffffffffffffffffffffffffffffffffff1661121c610f1c565b73ffffffffffffffffffffffffffffffffffffffff1614611272576040517f08c379a000000000000000000000000000000000000000000000000000000000815260040161126990612e4c565b60405180910390fd5b600073ffffffffffffffffffffffffffffffffffffffff168173ffffffffffffffffffffffffffffffffffffffff1614156112e2576040517f08c379a00000000000000000000000000000000000000000000000000000000081526004016112d990612ccc565b60405180910390fd5b6112eb81611867565b50565b60007f01ffc9a7000000000000000000000000000000000000000000000000000000007bffffffffffffffffffffffffffffffffffffffffffffffffffffffff1916827bffffffffffffffffffffffffffffffffffffffffffffffffffffffff1916149050919050565b60008073ffffffffffffffffffffffffffffffffffffffff166002600084815260200190815260200160002060009054906101000a900473ffffffffffffffffffffffffffffffffffffffff1673ffffffffffffffffffffffffffffffffffffffff1614159050919050565b600033905090565b816004600083815260200190815260200160002060006101000a81548173ffffffffffffffffffffffffffffffffffffffff021916908373ffffffffffffffffffffffffffffffffffffffff160217905550808273ffffffffffffffffffffffffffffffffffffffff1661143f83610c8b565b73ffffffffffffffffffffffffffffffffffffffff167f8c5be1e5ebec7d5bd14f71427d1e84f3dd0314c0f7b2291e5b200ac8c7c3b92560405160405180910390a45050565b600061149082611358565b6114cf576040517f08c379a00000000000000000000000000000000000000000000000000000000081526004016114c690612d4c565b60405180910390fd5b60006114da83610c8b565b90508073ffffffffffffffffffffffffffffffffffffffff168473ffffffffffffffffffffffffffffffffffffffff16148061154957508373ffffffffffffffffffffffffffffffffffffffff1661153184610621565b73ffffffffffffffffffffffffffffffffffffffff16145b8061155a5750611559818561114f565b5b91505092915050565b8273ffffffffffffffffffffffffffffffffffffffff1661158382610c8b565b73ffffffffffffffffffffffffffffffffffffffff16146115d9576040517f08c379a00000000000000000000000000000000000000000000000000000000081526004016115d090612e6c565b60405180910390fd5b600073ffffffffffffffffffffffffffffffffffffffff168273ffffffffffffffffffffffffffffffffffffffff161415611649576040517f08c379a000000000000000000000000000000000000000000000000000000000815260040161164090612d0c565b60405180910390fd5b611654838383611c56565b61165f6000826113cc565b6001600360008573ffffffffffffffffffffffffffffffffffffffff1673ffffffffffffffffffffffffffffffffffffffff16815260200190815260200160002060008282546116af91906130ad565b925050819055506001600360008473ffffffffffffffffffffffffffffffffffffffff1673ffffffffffffffffffffffffffffffffffffffff16815260200190815260200160002060008282546117069190613026565b92505081905550816002600083815260200190815260200160002060006101000a81548173ffffffffffffffffffffffffffffffffffffffff021916908373ffffffffffffffffffffffffffffffffffffffff160217905550808273ffffffffffffffffffffffffffffffffffffffff168473ffffffffffffffffffffffffffffffffffffffff167fddf252ad1be2c89b69c2b068fc378daa952ba7f163c4a11628f55a4df523b3ef60405160405180910390a4505050565b6117d9828260405180602001604052806000815250611c5b565b5050565b6001816000016000828254019250508190555050565b6117fc82611358565b61183b576040517f08c379a000000000000000000000000000000000000000000000000000000000815260040161183290612dcc565b60405180910390fd5b806006600084815260200190815260200160002090805190602001906118629291906122c8565b505050565b6000600760009054906101000a900473ffffffffffffffffffffffffffffffffffffffff16905081600760006101000a81548173ffffffffffffffffffffffffffffffffffffffff021916908373ffffffffffffffffffffffffffffffffffffffff1602179055508173ffffffffffffffffffffffffffffffffffffffff168173ffffffffffffffffffffffffffffffffffffffff167f8be0079c531659141344cd1fd0a4f28419497f9722a3daafe3b4186f6b6457e060405160405180910390a35050565b600081600001549050919050565b8173ffffffffffffffffffffffffffffffffffffffff168373ffffffffffffffffffffffffffffffffffffffff1614156119aa576040517f08c379a00000000000000000000000000000000000000000000000000000000081526004016119a190612d2c565b60405180910390fd5b80600560008573ffffffffffffffffffffffffffffffffffffffff1673ffffffffffffffffffffffffffffffffffffffff16815260200190815260200160002060008473ffffffffffffffffffffffffffffffffffffffff1673ffffffffffffffffffffffffffffffffffffffff16815260200190815260200160002060006101000a81548160ff0219169083151502179055508173ffffffffffffffffffffffffffffffffffffffff168373ffffffffffffffffffffffffffffffffffffffff167f17307eab39ab6107e8899845ad3d59bd9653f200f220920489ca2b5937696c3183604051611a9b9190612c4d565b60405180910390a3505050565b611ab3848484611563565b611abf84848484611cb6565b611afe576040517f08c379a0000000000000000000000000000000000000000000000000000000008152600401611af590612cac565b60405180910390fd5b50505050565b6060611b0f82611358565b611b4e576040517f08c379a0000000000000000000000000000000000000000000000000000000008152600401611b4590612e0c565b60405180910390fd5b6000600660008481526020019081526020016000208054611b6e90613197565b80601f0160208091040260200160405190810160405280929190818152602001828054611b9a90613197565b8015611be75780601f10611bbc57610100808354040283529160200191611be7565b820191906000526020600020905b815481529060010190602001808311611bca57829003601f168201915b505050505090506000611bf8611e4d565b9050600081511415611c0e578192505050611c51565b600082511115611c43578082604051602001611c2b929190612bc2565b60405160208183030381529060405292505050611c51565b611c4c84611edf565b925050505b919050565b505050565b611c658383611f86565b611c726000848484611cb6565b611cb1576040517f08c379a0000000000000000000000000000000000000000000000000000000008152600401611ca890612cac565b60405180910390fd5b505050565b6000611cd78473ffffffffffffffffffffffffffffffffffffffff16612154565b15611e40578373ffffffffffffffffffffffffffffffffffffffff1663150b7a02611d006113c4565b8786866040518563ffffffff1660e01b8152600401611d229493929190612c01565b602060405180830381600087803b158015611d3c57600080fd5b505af1925050508015611d6d57506040513d601f19601f82011682018060405250810190611d6a9190612713565b60015b611df0573d8060008114611d9d576040519150601f19603f3d011682016040523d82523d6000602084013e611da2565b606091505b50600081511415611de8576040517f08c379a0000000000000000000000000000000000000000000000000000000008152600401611ddf90612cac565b60405180910390fd5b805181602001fd5b63150b7a0260e01b7bffffffffffffffffffffffffffffffffffffffffffffffffffffffff1916817bffffffffffffffffffffffffffffffffffffffffffffffffffffffff191614915050611e45565b600190505b949350505050565b6060600a8054611e5c90613197565b80601f0160208091040260200160405190810160405280929190818152602001828054611e8890613197565b8015611ed55780601f10611eaa57610100808354040283529160200191611ed5565b820191906000526020600020905b815481529060010190602001808311611eb857829003601f168201915b5050505050905090565b6060611eea82611358565b611f29576040517f08c379a0000000000000000000000000000000000000000000000000000000008152600401611f2090612e8c565b60405180910390fd5b6000611f33611e4d565b90506000815111611f535760405180602001604052806000815250611f7e565b80611f5d84612167565b604051602001611f6e929190612bc2565b6040516020818303038152906040525b915050919050565b600073ffffffffffffffffffffffffffffffffffffffff168273ffffffffffffffffffffffffffffffffffffffff161415611ff6576040517f08c379a0000000000000000000000000000000000000000000000000000000008152600401611fed90612dec565b60405180910390fd5b611fff81611358565b1561203f576040517f08c379a000000000000000000000000000000000000000000000000000000000815260040161203690612cec565b60405180910390fd5b61204b60008383611c56565b6001600360008473ffffffffffffffffffffffffffffffffffffffff1673ffffffffffffffffffffffffffffffffffffffff168152602001908152602001600020600082825461209b9190613026565b92505081905550816002600083815260200190815260200160002060006101000a81548173ffffffffffffffffffffffffffffffffffffffff021916908373ffffffffffffffffffffffffffffffffffffffff160217905550808273ffffffffffffffffffffffffffffffffffffffff16600073ffffffffffffffffffffffffffffffffffffffff167fddf252ad1be2c89b69c2b068fc378daa952ba7f163c4a11628f55a4df523b3ef60405160405180910390a45050565b600080823b905060008111915050919050565b606060008214156121af576040518060400160405280600181526020017f300000000000000000000000000000000000000000000000000000000000000081525090506122c3565b600082905060005b600082146121e15780806121ca906131fa565b915050600a826121da919061307c565b91506121b7565b60008167ffffffffffffffff8111156121fd576121fc613330565b5b6040519080825280601f01601f19166020018201604052801561222f5781602001600182028036833780820191505090505b5090505b600085146122bc5760018261224891906130ad565b9150600a856122579190613243565b60306122639190613026565b60f81b81838151811061227957612278613301565b5b60200101907effffffffffffffffffffffffffffffffffffffffffffffffffffffffffffff1916908160001a905350600a856122b5919061307c565b9450612233565b8093505050505b919050565b8280546122d490613197565b90600052602060002090601f0160209004810192826122f6576000855561233d565b82601f1061230f57805160ff191683800117855561233d565b8280016001018555821561233d579182015b8281111561233c578251825591602001919060010190612321565b5b50905061234a919061234e565b5090565b5b8082111561236757600081600090555060010161234f565b5090565b600061237e61237984612f6c565b612f47565b90508281526020810184848401111561239a57612399613364565b5b6123a5848285613155565b509392505050565b60006123c06123bb84612f9d565b612f47565b9050828152602081018484840111156123dc576123db613364565b5b6123e7848285613155565b509392505050565b6000813590506123fe816138f2565b92915050565b60008135905061241381613909565b92915050565b60008135905061242881613920565b92915050565b60008151905061243d81613920565b92915050565b600082601f8301126124585761245761335f565b5b813561246884826020860161236b565b91505092915050565b600082601f8301126124865761248561335f565b5b81356124968482602086016123ad565b91505092915050565b6000813590506124ae81613937565b92915050565b6000602082840312156124ca576124c961336e565b5b60006124d8848285016123ef565b91505092915050565b600080604083850312156124f8576124f761336e565b5b6000612506858286016123ef565b9250506020612517858286016123ef565b9150509250929050565b60008060006060848603121561253a5761253961336e565b5b6000612548868287016123ef565b9350506020612559868287016123ef565b925050604061256a8682870161249f565b9150509250925092565b6000806000806080858703121561258e5761258d61336e565b5b600061259c878288016123ef565b94505060206125ad878288016123ef565b93505060406125be8782880161249f565b925050606085013567ffffffffffffffff8111156125df576125de613369565b5b6125eb87828801612443565b91505092959194509250565b6000806040838503121561260e5761260d61336e565b5b600061261c858286016123ef565b925050602061262d85828601612404565b9150509250929050565b6000806040838503121561264e5761264d61336e565b5b600061265c858286016123ef565b925050602061266d8582860161249f565b9150509250929050565b6000806000606084860312156126905761268f61336e565b5b600061269e868287016123ef565b93505060206126af8682870161249f565b925050604084013567ffffffffffffffff8111156126d0576126cf613369565b5b6126dc86828701612471565b9150509250925092565b6000602082840312156126fc576126fb61336e565b5b600061270a84828501612419565b91505092915050565b6000602082840312156127295761272861336e565b5b60006127378482850161242e565b91505092915050565b6000602082840312156127565761275561336e565b5b600082013567ffffffffffffffff81111561277457612773613369565b5b61278084828501612471565b91505092915050565b60006020828403121561279f5761279e61336e565b5b60006127ad8482850161249f565b91505092915050565b6127bf816130e1565b82525050565b6127ce816130f3565b82525050565b60006127df82612fe3565b6127e98185612ff9565b93506127f9818560208601613164565b61280281613373565b840191505092915050565b600061281882612fee565b612822818561300a565b9350612832818560208601613164565b61283b81613373565b840191505092915050565b600061285182612fee565b61285b818561301b565b935061286b818560208601613164565b80840191505092915050565b6000815461288481613197565b61288e818661300a565b945060018216600081146128a957600181146128bb576128ee565b60ff19831686526020860193506128ee565b6128c485612fce565b60005b838110156128e6578154818901526001820191506020810190506128c7565b808801955050505b50505092915050565b600061290460328361300a565b915061290f82613384565b604082019050919050565b600061292760268361300a565b9150612932826133d3565b604082019050919050565b600061294a601c8361300a565b915061295582613422565b602082019050919050565b600061296d60248361300a565b91506129788261344b565b604082019050919050565b600061299060198361300a565b915061299b8261349a565b602082019050919050565b60006129b3602c8361300a565b91506129be826134c3565b604082019050919050565b60006129d660388361300a565b91506129e182613512565b604082019050919050565b60006129f9602a8361300a565b9150612a0482613561565b604082019050919050565b6000612a1c60298361300a565b9150612a27826135b0565b604082019050919050565b6000612a3f602e8361300a565b9150612a4a826135ff565b604082019050919050565b6000612a6260208361300a565b9150612a6d8261364e565b602082019050919050565b6000612a8560318361300a565b9150612a9082613677565b604082019050919050565b6000612aa8602c8361300a565b9150612ab3826136c6565b604082019050919050565b6000612acb60208361300a565b9150612ad682613715565b602082019050919050565b6000612aee60298361300a565b9150612af98261373e565b604082019050919050565b6000612b11602f8361300a565b9150612b1c8261378d565b604082019050919050565b6000612b3460268361300a565b9150612b3f826137dc565b604082019050919050565b6000612b5760218361300a565b9150612b628261382b565b604082019050919050565b6000612b7a60318361300a565b9150612b858261387a565b604082019050919050565b6000612b9d60118361300a565b9150612ba8826138c9565b602082019050919050565b612bbc8161314b565b82525050565b6000612bce8285612846565b9150612bda8284612846565b91508190509392505050565b6000602082019050612bfb60008301846127b6565b92915050565b6000608082019050612c1660008301876127b6565b612c2360208301866127b6565b612c306040830185612bb3565b8181036060830152612c4281846127d4565b905095945050505050565b6000602082019050612c6260008301846127c5565b92915050565b60006020820190508181036000830152612c82818461280d565b905092915050565b60006020820190508181036000830152612ca48184612877565b905092915050565b60006020820190508181036000830152612cc5816128f7565b9050919050565b60006020820190508181036000830152612ce58161291a565b9050919050565b60006020820190508181036000830152612d058161293d565b9050919050565b60006020820190508181036000830152612d2581612960565b9050919050565b60006020820190508181036000830152612d4581612983565b9050919050565b60006020820190508181036000830152612d65816129a6565b9050919050565b60006020820190508181036000830152612d85816129c9565b9050919050565b60006020820190508181036000830152612da5816129ec565b9050919050565b60006020820190508181036000830152612dc581612a0f565b9050919050565b60006020820190508181036000830152612de581612a32565b9050919050565b60006020820190508181036000830152612e0581612a55565b9050919050565b60006020820190508181036000830152612e2581612a78565b9050919050565b60006020820190508181036000830152612e4581612a9b565b9050919050565b60006020820190508181036000830152612e6581612abe565b9050919050565b60006020820190508181036000830152612e8581612ae1565b9050919050565b60006020820190508181036000830152612ea581612b04565b9050919050565b60006020820190508181036000830152612ec581612b27565b9050919050565b60006020820190508181036000830152612ee581612b4a565b9050919050565b60006020820190508181036000830152612f0581612b6d565b9050919050565b60006020820190508181036000830152612f2581612b90565b9050919050565b6000602082019050612f416000830184612bb3565b92915050565b6000612f51612f62565b9050612f5d82826131c9565b919050565b6000604051905090565b600067ffffffffffffffff821115612f8757612f86613330565b5b612f9082613373565b9050602081019050919050565b600067ffffffffffffffff821115612fb857612fb7613330565b5b612fc182613373565b9050602081019050919050565b60008190508160005260206000209050919050565b600081519050919050565b600081519050919050565b600082825260208201905092915050565b600082825260208201905092915050565b600081905092915050565b60006130318261314b565b915061303c8361314b565b9250827fffffffffffffffffffffffffffffffffffffffffffffffffffffffffffffffff0382111561307157613070613274565b5b828201905092915050565b60006130878261314b565b91506130928361314b565b9250826130a2576130a16132a3565b5b828204905092915050565b60006130b88261314b565b91506130c38361314b565b9250828210156130d6576130d5613274565b5b828203905092915050565b60006130ec8261312b565b9050919050565b60008115159050919050565b60007fffffffff0000000000000000000000000000000000000000000000000000000082169050919050565b600073ffffffffffffffffffffffffffffffffffffffff82169050919050565b6000819050919050565b82818337600083830152505050565b60005b83811015613182578082015181840152602081019050613167565b83811115613191576000848401525b50505050565b600060028204905060018216806131af57607f821691505b602082108114156131c3576131c26132d2565b5b50919050565b6131d282613373565b810181811067ffffffffffffffff821117156131f1576131f0613330565b5b80604052505050565b60006132058261314b565b91507fffffffffffffffffffffffffffffffffffffffffffffffffffffffffffffffff82141561323857613237613274565b5b600182019050919050565b600061324e8261314b565b91506132598361314b565b925082613269576132686132a3565b5b828206905092915050565b7f4e487b7100000000000000000000000000000000000000000000000000000000600052601160045260246000fd5b7f4e487b7100000000000000000000000000000000000000000000000000000000600052601260045260246000fd5b7f4e487b7100000000000000000000000000000000000000000000000000000000600052602260045260246000fd5b7f4e487b7100000000000000000000000000000000000000000000000000000000600052603260045260246000fd5b7f4e487b7100000000000000000000000000000000000000000000000000000000600052604160045260246000fd5b600080fd5b600080fd5b600080fd5b600080fd5b6000601f19601f8301169050919050565b7f4552433732313a207472616e7366657220746f206e6f6e20455243373231526560008201527f63656976657220696d706c656d656e7465720000000000000000000000000000602082015250565b7f4f776e61626c653a206e6577206f776e657220697320746865207a65726f206160008201527f6464726573730000000000000000000000000000000000000000000000000000602082015250565b7f4552433732313a20746f6b656e20616c7265616479206d696e74656400000000600082015250565b7f4552433732313a207472616e7366657220746f20746865207a65726f2061646460008201527f7265737300000000000000000000000000000000000000000000000000000000602082015250565b7f4552433732313a20617070726f766520746f2063616c6c657200000000000000600082015250565b7f4552433732313a206f70657261746f7220717565727920666f72206e6f6e657860008201527f697374656e7420746f6b656e0000000000000000000000000000000000000000602082015250565b7f4552433732313a20617070726f76652063616c6c6572206973206e6f74206f7760008201527f6e6572206e6f7220617070726f76656420666f7220616c6c0000000000000000602082015250565b7f4552433732313a2062616c616e636520717565727920666f7220746865207a6560008201527f726f206164647265737300000000000000000000000000000000000000000000602082015250565b7f4552433732313a206f776e657220717565727920666f72206e6f6e657869737460008201527f656e7420746f6b656e0000000000000000000000000000000000000000000000602082015250565b7f45524337323155524953746f726167653a2055524920736574206f66206e6f6e60008201527f6578697374656e7420746f6b656e000000000000000000000000000000000000602082015250565b7f4552433732313a206d696e7420746f20746865207a65726f2061646472657373600082015250565b7f45524337323155524953746f726167653a2055524920717565727920666f722060008201527f6e6f6e6578697374656e7420746f6b656e000000000000000000000000000000602082015250565b7f4552433732313a20617070726f76656420717565727920666f72206e6f6e657860008201527f697374656e7420746f6b656e0000000000000000000000000000000000000000602082015250565b7f4f776e61626c653a2063616c6c6572206973206e6f7420746865206f776e6572600082015250565b7f4552433732313a207472616e73666572206f6620746f6b656e2074686174206960008201527f73206e6f74206f776e0000000000000000000000000000000000000000000000602082015250565b7f4552433732314d657461646174613a2055524920717565727920666f72206e6f60008201527f6e6578697374656e7420746f6b656e0000000000000000000000000000000000602082015250565b7f596f7520617265206e6f7420616c6c6f77656420746f206d696e74207468697360008201527f2074776565740000000000000000000000000000000000000000000000000000602082015250565b7f4552433732313a20617070726f76616c20746f2063757272656e74206f776e6560008201527f7200000000000000000000000000000000000000000000000000000000000000602082015250565b7f4552433732313a207472616e736665722063616c6c6572206973206e6f74206f60008201527f776e6572206e6f7220617070726f766564000000000000000000000000000000602082015250565b7f4d696e74696e6720697320706175736564000000000000000000000000000000600082015250565b6138fb816130e1565b811461390657600080fd5b50565b613912816130f3565b811461391d57600080fd5b50565b613929816130ff565b811461393457600080fd5b50565b6139408161314b565b811461394b57600080fd5b5056fea264697066735822122061943e383097ecd6bc6550005e60dbf3ba355b8665ea08c6284ae1c3491525a964736f6c63430008060033",
  "linkReferences": {},
  "deployedLinkReferences": {}
}